:400000000080002011000000850600008506000080B500AF024A034B1B68136000F03CFBBC760040FA46004010B5054C237833B9044B13B10448AFF300800123237010BDCA
:40004000D881FF1F000000003C7F0000084B10B51BB108480849AFF300800848036803B910BD074B002BFBD0BDE81040184700BF000000003C7F0000DC81FF1F0881FF1F2B
:400080000000000080B582B000AF62B603F044FC0346FB7100F02CF800F0A0F900F0C8FA642001F04DF8FB79184603F039FC00F05BF94FF47A7001F043F8F8E780B582B044
:4000C00000AF7860786800F08BF80837BD4680BD80B500AF01F0C8FD0246034B1A60034801F044FC80BD00BF6492FF1F7C92FF1F80B500AF01F0D4F901F0CEF801F0B2F950
:400100000A4840F2472100F019F809484FF4C47100F014F807484FF4627100F00FF802F04DFF054802F0B0FF80BD00BF6492FF1F5492FF1F8892FF1FD100000080B485B0FF
:4001400000AF78600B467B807B687A889A807B6808229A717B6800221A600023FB7307E0FB7B7A681344FF22DA71FB7B0133FB737B689B79FA7B9A42F2D37B8840F24722C0
:40018000934224D1144B40F247221A60124B00221A71114B00225A710F4B08229A710E4B0122DA710C4B0D4A9A600023FB7306E0FB7B0A4A0021D154FB7B0133FB73064BC0
:4001C0009B79FA7B9A42F3D3044B0122DA711437BD465DF8047B70477C92FF1F7492FF1F80B584B000AF78600023FB607B689B88B3F5227F02D0B3F5627F05D106487968D1
:4002000000F00CF8F86002E00123FB6000BFFB6818461037BD4680BD8892FF1F80B489B000AF7860396000237B773B689B883B823B689B79BB743B681B68FB600023FB77B1
:400240000CE0FB7FFA7F39680A44D27907F120010B4403F80D2CFB7F0133FB77BB7CFA7F9A42EED30023FB7716E0FA7F7B7F13447A7FB97C4908C9B21144FA7F8A1A013A60
:4002800007F120010A4412F80D1C3A6813440A46DA71FB7F0133FB773B689B795B08DBB2FA7F9A42E1D304237B770023FB7716E0FA7F7B7F13447A7FB97C4908C9B2114483
:4002C000FA7F8A1A013A07F120010A4412F80D1C3A6813440A46DA71FB7F0133FB773B689B795B08DBB2FA7F9A42E1D30023FB772EE0FB7F7A681344DA79FB7F39680B4495
:40030000DB799A4221D03B689A887B689A803B689A797B689A713B681A687B681A600023BB770BE0BB7FBA7F39680A44D1797A6813440A46DA71BB7F0133BB773B689B799D
:40034000BA7F9A42EED3012308E0FB7F0133FB773B689B79FA7F9A42CBD3002318462437BD465DF8047B704780B586B000AF4FF48073BB6000233B7300237B730823BB73C1
:400380000123FB733B463B610023FB7509E0FB7D07F118021344022203F8182CFB7D0133FB75FB7D072BF2D907F10803184601F0DDFA1837BD4680BD80B500AF00F0C4F8F5
:4003C00001F046FC4FF47A7000F0BAFEFEE700BF80B500AF00F078F880BD00BFB0B590B000AF01F09DFC01F033FC2D4801F0E2FB01F01CFD2B4801F07FFD05F0C9FD03F038
:4004000047FC294B01221A7005F04EFF0346012B40D1022005F0B6FD2448254905F0DAFE0246244B1A60234B1B68002B05D0224806F0B6F8204803F0ADFB204805F096FAFF
:400440000346102B09D01D4805F0BEFB0346002B03D0154B00221A701FE03B46184A1C4615460FCD0FC495E8070003C422800234130C23703B461846124905F0ABFE024676
:400480000C4B1A600B4B1B68002B03D1064B00221A7002E0084806F02DF84037BD46B0BDB9030000D1030000F481FF1F507F00005C7F000098D2FF1F607F0000647F00004B
:4004C000707F00008C7F000080B592B000AF184B1B78002B29D00023A7F8463003F01CFA034687F845303B1D124A92E803001860043319800523A7F846300F4B1968B7F903
:4005000046303A1D084611461A4606F07AF80B4805F0F0FF0A4B00221A800A4B00221A8097F84530184603F0FBF94837BD4680BDF481FF1F907F000098D2FF1F607F000017
:40054000F681FF1FF881FF1F80B500AFFFF7BCFF054B1B68184605F077FD044805F0CAFF024805F09DFF80BD98D2FF1F607F000080B500AF01F0A0FD03461A460A4B1A60AD
:4005800001F062FD03461A46084B1A60012001F0E1FD064B1B6803F00103002B02D0024B00221A6080BD00BF9CD2FF1FFC81FF1F80B500AF02F022F903461A460A4B1A6048
:4005C00002F0E4F803461A46084B1A60012002F063F9064B1B6803F00103002B02D0024B00221A6080BD00BFC0D2FF1F0482FF1F80B500AF02F028FE03461A460A4B1A60D3
:4006000002F0EAFD03461A46084B1A60012002F0B7FE064B1B6803F00103002B02D0024B00221A6080BD00BFA8D2FF1F0882FF1F80B500AF104802F0F1FB01F0E5FC01F0D9
:4006400053FE01F0E3FD01F0BDFF0C4802F034FC02F07CF802F0EAF902F07AF902F070FA074802F03FFE02F097FD02F053FF02F0E3FE02F0D9FF80BD71050000B1050000EB
:40068000F105000080B500AF07F018FC03461B680C2B00D1FEE7FEE780B586B000AF224B7B61224B3B61204B7B6135E03B691B68FB603B695B68BB603B699B683B60002386
:4006C0007B600CE0FB681A68BB681A60BB680433BB60FB680433FB607B6804337B607A683B689A42EED13B69DB683B6000237B6008E0BB6800221A60BB680433BB607B68B3
:4007000004337B607A683B689A42F2D13B6910333B617B69013B7B617B69002BC6D107F0D3FBFFF7AFFCFEE7010000006C84000080B582B000AF184B184A1A60184A184B08
:400740001B6843F40073136000237B600FE07B68032B04D8134A7B6852F8233000E0124B12497A6841F822307B6801337B607B682F2BECD90E4B1B78DAB20E4B1A700E4B75
:400780000A4A1A6000F0D0F900F0E2FA0B4B00221A600837BD4680BD0CED00E00004FA0514ED00E000000000850600000080FF1FBC7600400481FF1F08ED00E00081FF1F06
:4007C00080B582B000AF78603960786800213A6807F0ABFB0837BD4680BD00BF80B584B000AFF860B9607A60F868B9687A6807F091FB1037BD4680BD80B483B000AF0346C5
:40080000FB71FEE780B487B000AF7860396000233B6100237B6127E07B699B007A6813441B68BB60BB68FB73BB6823F0FF03BB6014E03B695B003A6813441B781A46BB68DB
:40084000134419463B695B003A6813445B780B703B6901333B61FB7B013BFB73FB7B002BE7D17B6901337B617B69282BD4D91C37BD465DF8047B704780B582B000AF4E4B27
:4008800000221A804D4B58221A704D4B5F221A804C4B19221A704C4B5F221A804B4B19221A704B4B5F221A804A4B19221A704A4B45F6BF521A80494B18221A70484B06222B
:4008C0001A70484B43F213321A80474B05221A70454B1B7843F2C8237B6006E04FF4F07003F012F87B68013B7B607B68002B06D03D4B1B78DBB2DBB25BB2002BEEDB7B68E9
:40090000002B02D10120FFF777FF4FF0402340221A70364B70221A70354B4FF4E1621A80344B41F251221A800023FB7019237B6014E0FB785B00DAB22F4B1B78DBB203F022
:400940000103DBB21343DBB203F00303FB704FF4F07002F0D9FF7B68013B7B607B68002B02D0FB78032BE4D17B68002B02D10320FFF742FF214B4FF480721A801F4B0722F9
:400980001A701F4B00221A701E4B48221A701B4B00221A701C4B00221A701C4B02221A701B4A1B4B1B78DBB243F01F03DBB213700837BD4680BD00BF804000408240004070
:4009C0008440004086400040884000408A4000408C4000408E4000409040004092400040004300401242004010420040004200402242004020420040254200400440004003
:400A000006400040084000400940004001400040A243004080B483B000AF2A4B1B78FB71294AFB7903F00703DBB21370274AFB791B09DBB21370264B01221A70254B4022F2
:400A40001A70254B08221A70244B08221A70244B08221A70234B80221A70234B80221A70224B20221A70224B10221A70214B40221A70214B01221A70204B02221A70204BF7
:400A800020221A701F4B40221A701F4B01221A701E4B04221A701E4B20221A701D4B80221A701D4B20221A701C4B20221A701C4B02221A701B4B44221A700C37BD465DF8AE
:400AC000047B7047CF0100496E5800406F5800400D5100401D5100402D5100403D510040005A0040085A0040105A0040185A0040205A0040285A0040805A0040885A004072
:400B0000905A0040C05A0040C45A0040C85A0040CB5A0040D05A0040D45A0040D85A0040DC5A00407658004080B586B000AF72B6644A644B1B78DBB243F00403DBB2137035
:400B40000023FB7513E0FA7D13465B0013445B005D4A13443B613B691A683B699B889BB210461946FFF72CFEFB7D0133FB75FB7D062BE8D90023FB751CE0FA7D13469B00E9
:400B800013445B00514A1344FB60FB681B68BB60FB685B687B60FB681A7A5B7A1B0213437B807B88B86879681A46FFF717FEFB7D0133FB75FB7D002BDFD04FF09040444981
:400BC000FFF720FE434B03221A80434B40F203121A80424B40F203221A80414B40F203321A8040480421FFF7EBFD3F480421FFF7E7FD3E480421FFF7E3FD3D4A3C4B1B78E7
:400C0000DBB243F00203DBB213703A4A394B1B78DBB243F00203DBB21370374A364B1B78DBB243F04003DBB21370344A334B1B78DBB243F01003DBB2137031483149082238
:400C4000FFF7CCFD304831490822FFF7C7FD304830490A22FFF7C2FD2F4830490822FFF7BDFD2F482F490A22FFF7B8FD2E482F490822FFF7B3FD2E482E490822FFF7AEFD07
:400C80002D482E490822FFF7A9FD2D4BC4221A702C4A2C4B1B78DBB243F00803DBB21370294B01221A70FFF7E7FD274B81221A70FFF7B0FE254810490E22FFF78FFD18373A
:400CC000BD4680BDE8460040CC7F0000F87F0000A4000048485800404A5800404C5800404E5800400076004008760040107600400350014013500140A0430040C243004032
:400D0000025100409C0D0048C2510040A40D0048F0510040AC0D004812510040B80D004820510040C00D004832510040CC0D004842510040D40D004862510040DC0D0048E7
:400D4000DB0A01402243004000480040B043004080B483B000AF134B7F221A70124B80221A707F23FB710CE0FB79DB0003F1804303F5F043FA79013AD2B21A70FB79013B2E
:400D8000FB71FB79002BEFD1FB79DB0003F1804303F5F04300221A700C37BD465DF8047B704700BF0D81FF1F0C81FF1F80B485B000AF03460A46FB711346BB710123FB6083
:400DC000FB79172B2FD8BB79002B0ED0FB791A01184B1344FA791101164A0A441278D2B242F02002D2B21A700DE0FB791A01114B1344FA7911010F4A0A441278D2B222F092
:400E00002002D2B21A70FB791A010A4B1344FA791101084A0A441278D2B242F00102D2B21A700023FB60FB6818461437BD465DF8047B70471070004080B485B000AF034698
:400E40000A46FB711346BB710123FB60FB79172B18D8FB791A010F4B13441B78DBB223F00E03FB72FB791A010A4B1344BA7902F00702D2B25200D1B2FA7A0A43D2B21A708A
:400E80000023FB60FB6818461437BD465DF8047B704700BF1070004080B485B000AF0346FB710B46BB8013467B800123FB60BB8841F6FF72934202D14FF40053BB807B8808
:400EC00041F6FF72934202D14FF400537B80FB79172B17D8FB79DB0003F1804303F5EC430433BB60BB68BA881A80FB79DB0003F1804303F5EC430633BB60BB687A881A80AE
:400F00000023FB60FB6818461437BD465DF8047B704700BF80B485B000AF03460A46FB711346BB710123FB60FB79172B07D8FB791A01064B1344BA795A720023FB60FB680D
:400F400018461437BD465DF8047B70471070004090B484B000AF0446084611461A462346FB710346BB710B467B7113463B710123FB60FB79172B34D8FB79DB0003F1804331
:400F800003F5EC43BA7902F07F02D1B27A79D201D2B20A43D2B21A70FB79DB0003F1804303F5EC433A7E1201D1B23A7902F00F02D2B20A43D2B25A70FB79DB0003F18043E6
:400FC00003F5EC433A7F02F00F02D2B29A70FB79DB0003F1804303F5EC430022DA700023FB60FB6818461037BD4690BC704700BF80B582B000AFFF23FB7102F08DFC034634
:40100000BB71104B1B78182B12D90F4B1B78FB710C4B1B78013BDAB20A4B1A70FB79DB0003F1804303F5F0431B78DAB2064B1A70BB79184602F074FCFB7918460837BD464B
:4010400080BD00BF0C81FF1F0D81FF1F90B484B000AF0446084611461A462346FB710346BB800B46BB711346FB700123FB60FB795BB2002B23DBBB8823F47F6323F00F0383
:401080009BB2002B1BD1FB79DB0003F1804303F5F043BB60BB68BA881A80FB79DB0003F1804303F5F043BA799A70FB79DB0003F1804303F5F043FA78DA700023FB60FB6845
:4010C00018461037BD4690BC704700BF80B485B000AF0346FB710B46BB8013467B800123FB60FB795BB2002B17DBFB79DB0003F1804303F5F0430433BB60BB68BA881A803A
:40110000FB79DB0003F1804303F5F0430633BB60BB687A881A800023FB60FB6818461437BD465DF8047B704780B483B000AF0346FB7101BE0C37BD465DF8047B704700BF39
:4011400080B582B000AF786008E00C4B1B68184602F0DAFB7B68A3F500437B607B68B3F5004FF2D8064B1B687A6802FB03F3184602F0CAFB0837BD4680BD00BF2081FF1FA2
:401180001881FF1F80B584B000AF03463960FB710F4B1B68FB60FB791F2B02D90020FFF7C3FFFB7903F01F0310339B00FA6813441B68BB60FB7903F01F0310339B00FA68E2
:4011C00013443A681A60BB6818461037BD4680BD08ED00E080B582B000AF03460A46FB711346BB71BB79072B02D90020FFF79CFFFB791F2B02D90020FFF796FFFB7903F062
:401200001F0303F1604303F56443BA795201D2B21A700837BD4680BD80B582B000AF0023FB710023BB7112E0BA7913465B0013449B00174A1344184600F012FB0346002BFD
:4012400002D00123FB7105E0BB790133BB71BB79072BE9D9FB79002B15D10023BB710FE0BB791B010B4A1344184600F083FA0346002B02D00123FB7105E0BB790133BB7192
:40128000BB790F2BECD9FB7918460837BD4680BD048000006480000080B582B000AF4FF4F0537B600123FB700123BB7002F034FB03467B703D4A3D4B1B78DBB243F0010332
:4012C000DBB213703A4A3A4B1B78DBB243F00103DBB213707B78184602F022FB354A354B1B78DBB223F00103DBB2137002E07B68013B7B607B68002B06D02E4B1B78DBB26F
:4013000003F00103002BF2D17B68002B49D02A4B4FF480321A6010202849FFF733FF10200721FFF757FF022000F0DAF80346002B1CD1012000F0F6F80346002B16D10A2087
:4013400003210022002300F023F90346002B0DD1012000F087F90346002B07D1002000F0B7F90346002B01D10023BB70BB78002B17D1FFF751FF0346002B12D141F201005E
:4013800000F0DCF90346002B0BD10A4B00221A70084B1B78DBB203F00103002B01D10023FB70FB7818460837BD4680BDA6430040B643004010A0004080E100E051190000D5
:4013C00080B582B000AF4FF410737B600123FB7002F0A2FA0346BB701D4A1D4B1B78DBB243F00103DBB213701A4A1A4B1B78DBB243F00103DBB21370BB78184602F090FA32
:40140000154B41F201021A6000F04AF8134B4FF480321A60124A124B1B6843F00103136002E07B68013B7B607B68002B05D00C4B1B6803F00103002BF3D07B68002B01D05A
:401440000023FB70FB7818460837BD4680BD00BFA6430040B643004000A0004000E100E010A0004080B582B000AF0023FB710B4B1B78002B03D1FFF70FFF0346FB71FB7922
:40148000002B06D1054B01221A70FFF799FF0346FB71FB7918460837BD4680BD0C82FF1F80B483B000AF0123FB710C4A0B4B1B78DBB243F00103DBB21370084B1B78DBB2C1
:4014C00003F00103002B01D00023FB71FB7918460C37BD465DF8047B704700BF04A0004080B485B000AF0346FB800223FB73FB881BB2002B0CDB0123FB73094AFB88138058
:40150000074B1B889BB2FA889A4201D10023FB73FB7B18461437BD465DF8047B704700BF16A0004080B485B000AF0346FB710123FB73FB79002B11D1144A144B5B78DBB249
:4015400023F01003DBB25370104B5B78DBB203F01003002B13D10023FB7310E00B4A0B4B5B78DBB243F01003DBB25370074B5B78DBB203F01003002B01D00023FB73FB7B48
:4015800018461437BD465DF8047B704714A0004090B484B000AF0446084611461A462346FB710346BB710B467B7113463B710223FB73FB79012B4CD9FB790F2B49D8BB79A3
:4015C000012B02D9BB79072B05D93B79002B40D1BB79012B3DD17B79032B3AD87A79FB799A4236D87A79BB799A4232D80123FB731B4B5B78BB73BB7B23F00F03BB73BA7BF9
:40160000FB791343BB73164ABB7B5370144B5B78DBB2BA7B9A421CD10023BB733B79002B01D00223BB73BB795B01DAB27B799B00DBB21343DAB2BB7B1343BB73084ABB7BEC
:401640001370074B1B78DBB2BA7B9A4201D10023FB73FB7B18461037BD4690BC704700BF14A0004080B485B000AF0346FB710123FB73FB79002B11D1144A144B1B78DBB270
:4016800023F01003DBB21370104B1B78DBB203F01003002B13D10023FB7310E00B4A0B4B1B78DBB243F01003DBB21370074B1B78DBB203F01003002B01D00023FB73FB7B47
:4016C00018461437BD465DF8047B704714A0004080B485B000AF0346FB710123FB73FB79002B11D1144A144B1B78DBB223F00103DBB21370104B1B78DBB203F00103002B3E
:4017000013D10023FB7310E00B4A0B4B1B78DBB243F00103DBB21370074B1B78DBB203F00103002B01D00023FB73FB7B18461437BD465DF8047B704714A0004080B485B032
:4017400000AF0346FB800123FB73094AFB881380074B1B889BB2FA889A4201D10023FB73FB7B18461437BD465DF8047B704700BF04A0004080B485B000AF78600123FB7326
:401780007B681B785A01354B13441A467B685B6843F0801313607B681B785A012F4B13441B6803F07F127B685B6823F080139A424DD17B681B785A01284B134410337A6893
:4017C00092681A607B681B785A01244B134410331A687B689B689A4239D17B681B785A011E4B134414337A68D2681A607B681B785A011A4B134414331A687B68DB689A4287
:4018000025D17B681B785A01144B134418334FF0FF321A607B681B785A01104B134418331B68B3F1FF3F12D17B681B785A010B4B13441C3300221A607B681B785A01074B54
:4018400013441C331B68002B01D10023FB73FB7B18461437BD465DF8047B7047A0A0004080B485B000AF78600123FB737B681B781A011B4B13441A467B685B6843F4000374
:4018800043F0080313607B681B781A01144B13441B68144A1A407B685B6823F4000323F008039A4215D17B681B781A010C4B134404337A6892681A607B681B781A01084BA5
:4018C000134404331A687B689B689A4201D10023FB73FB7B18461437BD465DF8047B704720A00040F7007F0080B582B000AF0123BB80144B10225A700023FB711BE0124BD9
:401900001B889AB2BB8813409BB2002B0DD0FB795A010E4B13441B78DBB203F02003002B03D0FB79184600F0D9F8BB885B00BB80FB790133FB71FB790F2BE0D90837BD46F1
:4019400080BD00BF00A0004008A00040A0A0004080B500AF044B5B78DBB203F01003002B01D0FFF7C1FF80BD00A0004080B487B000AF786000233B750123FB749BE00123C4
:401980007B750023FB758BE0504B9B78DAB27B7D1340DBB2002B79D10023FB607B681B79002B02D04FF40013FB607B685B79002B09D1FB7D1A01464B134404337A68126845
:4019C00052051A600CE0FB6843F48013FB60FB7D1A013F4B134404337A681268D2001A607B689B79072B06D87B689B791B04FA681343FB6003E0FB6843F40023FB607B6841
:401A0000DB79002B03D0FB6843F00403FB600023BB7517E0FB7D1A012D4B1344BA7D032A03D9BA7DC2F10B0202E0BA7DC2F1030279688868B97D415C13440A461A72BB7D99
:401A40000133BB757B689B79BA7D9A4202D2BB7D072BDFD91F4B4FF480321A60FB7D1A011B4B13441A46FB6843F4000343F008031360FB7D1A01164B13441A4601231360E9
:401A8000154B4FF480321A600023FB747B7D5B007B75FB7C002B00D106E0FB7D0133FB75FB7D072B7FF670AFFB7C002B00D106E03B7D01333B753B7D022B7FF660AFFB7CFA
:401AC00018461C37BD465DF8047B704708A0004020A0004080E100E000E100E080B588B000AF0346FB71FB795A01314B13441B78DBB203F00103002B57D0FB795A012C4B9B
:401B000013449B78DBB203F010031B11002B08D0FB795A01264B134404331B68DB089BB207E0FB795A01224B134404331B685B0D9BB2BB81FB795A011D4B13449B78DBB2A5
:401B400003F00F03DBB2BB7300F08EF80346BB600023FB7711E0FA7FFB795901144B0B44F97F0B441B7AD9B207F1200313440A4603F8112CFB7F0133FB77BB7BFA7F9A42C4
:401B8000E9D307F10803BB61B869FEF797FAFB795A01074B1344FA795101054A0A441278D2B242F00102D2B21A702037BD4680BDA0A0004080B582B000AF786000F03CF84F
:401BC000786800F009F8072000F018F800F028F80837BD4680BD00BF80B485B000AF7860054B1B68FB60FB6858337A681A601437BD465DF8047B704708ED00E080B483B022
:401C000000AF0346FB71054AFB795B01DBB213700C37BD465DF8047B704700BF06E400E080B400AF034B40221A60BD465DF8047B704700BF00E100E080B400AF034B402209
:401C40001A60BD465DF8047B704700BF80E100E080B400AF034B40221A60BD465DF8047B704700BF80E200E080B400AF044B1B78044B1B681846BD465DF8047B704700BF7E
:401C8000046500404465004080B500AF002000F057F8144A134B1B78DBB223F02003DBB21370104A0F4B1B78DBB223F00403DBB213700C4A0B4B1B78DBB243F00803DBB298
:401CC0001370094A084B1B78DBB223F01803DBB21370054A044B1B78DBB243F01003DBB2137080BD41580040CF5A004080B400AF094A094B1B78DBB243F00203DBB21370D8
:401D0000064A064B1B78DBB243F00203DBB21370BD465DF8047B7047A7430040B743004080B500AF054B1B78002B04D1FFF7ACFF024B01221A70FFF7D9FF80BD0D82FF1F8E
:401D400080B483B000AF0346FB71164B154A1278D2B2D2B222F00302D1B2FA7902F00302D2B20A43D2B2D2B21A70FB79012B0AD10D4B0E4A1278D2B21A700D4B0D4A1278E3
:401D8000D2B21A7009E0084B0B4A1278D2B21A70074B0A4A1278D2B21A700C37BD465DF8047B70474158004032460040110100493346004015010049AF010049B7010049DF
:401DC00080B582B000AF40F2E73000F05BF840F2E73000F073F801F09FFD0346FB710A4A094B1B78DBB243F01003DBB21370FB79184601F095FD00F071F8002000F026F861
:401E00000837BD4680BD00BF9965004080B400AF054A054B1B78DBB263F07F03DBB21370BD465DF8047B70477965004080B500AF054B1B78002B04D1FFF7C2FF024B012205
:401E40001A70FFF7E3FF80BD0E82FF1F80B483B000AF0346FB71044AFB7913700C37BD465DF8047B704700BF8965004080B400AF034B1B78DBB21846BD465DF8047B70470A
:401E80006965004080B483B000AF0346FB80044AFB8813800C37BD465DF8047B704700BF506A004080B400AF034B1B889BB21846BD465DF8047B7047906A004080B483B09E
:401EC00000AF0346FB80044AFB8813800C37BD465DF8047B704700BF106A004080B500AF01E0FFF7DFFFFFF7C1FF034603F00803002BF6D180BD00BF80B582B000AF78604F
:401F000000F03CF8786800F009F8072000F018F800F028F80837BD4680BD00BF80B485B000AF7860054B1B68FB60FB685C337A681A601437BD465DF8047B704708ED00E01D
:401F400080B483B000AF0346FB71054AFB795B01DBB213700C37BD465DF8047B704700BF07E400E080B400AF034B80221A60BD465DF8047B704700BF00E100E080B400AFCE
:401F8000034B80221A60BD465DF8047B704700BF80E100E080B582B000AF41F2873000F05FF841F2873000F077F801F0B5FC0346FB710C4A0B4B1B78DBB243F01003DBB2A3
:401FC0001370FB79184601F0ABFC00F085F8002000F092F800F0B0F8032000F025F80837BD4680BD9B64004080B400AF054A054B1B78DBB263F07F03DBB21370BD465DF888
:40200000047B70477A64004080B500AF054B1B78002B04D1FFF7BEFF024B01221A70FFF7E3FF80BD0F82FF1F80B483B000AF0346FB71044AFB7913700C37BD465DF8047BEA
:40204000704700BF8B64004080B400AF034B1B78DBB21846BD465DF8047B70476B64004080B483B000AF0346FB80044AFB8813800C37BD465DF8047B704700BF54680040A5
:4020800080B400AF034B1B889BB21846BD465DF8047B70479468004080B483B000AF0346FB80044AFB8813800C37BD465DF8047B704700BF1468004080B400AF044B1B7888
:4020C000044B1B889BB21846BD465DF8047B70470A6400409468004080B400AF054A054B1B78DBB243F01003DBB21370BD465DF8047B70477A64004080B483B000AF0346C8
:40210000FB71FB7903F00303FB710A4A094B1B78DBB223F00303DBB213700649054B1B78DAB2FB791343DBB20B700C37BD465DF8047B70477A64004080B500AF01E0FFF72F
:402140009FFFFFF781FF034603F00803002BF6D180BD00BF80B483B000AF0346FB71044AFB7913700C37BD465DF8047B704700BF7E64004080B500AF012000F057F8144AB2
:40218000134B1B78DBB223F02003DBB21370104A0F4B1B78DBB223F00403DBB213700C4A0B4B1B78DBB243F00803DBB21370094A084B1B78DBB223F01803DBB21370054AF0
:4021C000044B1B78DBB243F01003DBB2137080BD42580040D75A004080B400AF094A094B1B78DBB243F00403DBB21370064A064B1B78DBB243F00403DBB21370BD465DF83B
:40220000047B7047A7430040B743004080B500AF054B1B78002B04D1FFF7ACFF024B01221A70FFF7D9FF80BD1082FF1F80B483B000AF0346FB71164B154A1278D2B2D2B2CA
:4022400022F00302D1B2FA7902F00302D2B20A43D2B2D2B21A70FB79012B0AD10D4B0E4A1278D2B21A700D4B0D4A1278D2B21A7009E0084B0B4A1278D2B21A70074B0A4A1E
:402280001278D2B21A700C37BD465DF8047B70474258004034460040120100493546004016010049B1010049B901004980B500AF00F096F8034B1B78FF2B01D100F024F861
:4022C00080BD00BF3481FF1F80B500AF054B1B7818460121FEF76AFD00F018F900F09EF880BD00BF1282FF1F80B500AF054B1B78002B04D1FFF7DAFF024B01221A70FFF7B1
:40230000E3FF80BD1182FF1F80B500AF0120012141F6FF724FF4804300F02EF803461A46124B1A70FEF764FE03461A46104B1A700F4B1A780E4B1B78104610211A4601238A
:40234000FEF784FE0A4B1A780A4B9BB21046194645F68232FEF7BAFE044B1A78044B1B7810461946FEF7D6FD80BD00BF1282FF1F3481FF1F2481FF1F90B585B002AF044613
:40238000084611461A462346FB710346BB710B46BB8013467B80114B00221A700F4B1878F979BA7900230093002301930023FEF7CFFD0A4B1978BA887B88084611461A46D6
:4023C000FEF76AFD054B1B7818460221FEF734FD024B1B7818460C37BD4690BD3881FF1F80B500AF0A4B00221A700A4B00221A70094A094B1B78DBB243F00803DBB2137054
:40240000042000F045F8022000F022F880BD00BF2858004029580040975A004080B400AF094A094B1B78DBB243F00403DBB21370064A064B1B78DBB243F00403DBB2137072
:40244000BD465DF8047B7047A8430040B843004080B483B000AF0346FB710C4A0B4B1B78DBB223F00203DBB213700849074B1B78DAB2FB7903F00203DBB21343DBB20B7090
:402480000C37BD465DF8047B704700BF2858004080B582B000AF0346FB710C4A0B4B1B78DBB223F00C03DBB213700849074B1B78DAB2FB7903F00C03DBB21343DBB20B70E0
:4024C00000F006F80837BD4680BD00BF2858004080B483B000AF0B4B1B78DBB203F00C039B08DBB20633FB71074AFB7903F1924303F594731B78DBB213700C37BD465DF8C2
:40250000047B7047285800400A46004080B400AF094A094B1B78DBB243F00403DBB21370064A064B1B78DBB243F00403DBB21370BD465DF8047B7047A2430040B24300402E
:4025400080B500AF0A4B0C221A700A4A094B1B78DBB243F02003DBB21370074B80221A70022000F05BF8032000F03CF880BD00BF00580040015800400258004080B400AF68
:402580000D4A0D4B1B78DBB243F00103DBB213700A4A0A4B1B78DBB243F00103DBB21370074A074B1B78DBB263F07F03DBB21370BD465DF8047B7047A9430040B943004057
:4025C0007758004080B500AF054B1B78002B04D1FFF7B6FF024B01221A70FFF7CFFF80BD1382FF1F80B485B000AF0346FB710A4B1B78DBB223F00303FB73FB7903F0030376
:40260000DAB2FB7B1343FB73034AFB7B13701437BD465DF8047B70470158004080B588B000AF0346FB71284A07F114031068516803C3127A1A70254A07F10803106851681A
:4026400003C3127A1A70FB79082B39D8204A204B1B78DBB223F07F03DBB213701C481C4B1B78DAB2FB7907F120010B4413F80C1CFB7907F1200E734413F8183C9B00DBB25B
:4026800003F00C03DBB20B43DBB21343DBB20370104A104B1B78DBB223F00C03DBB213700C490C4B1B78DAB2FB7907F12000034413F8183C1343DBB243F00C03DBB20B7029
:4026C0002037BD4680BD00BF6481000070810000025800400158004080B582B000AF41F2873000F05FF841F2873000F077F801F013F90346FB710C4A0B4B1B78DBB243F03A
:402700001003DBB21370FB79184601F009F900F085F8002000F092F800F0B0F8032000F025F80837BD4680BD9064004080B400AF054A054B1B78DBB263F07F03DBB21370A8
:40274000BD465DF8047B70477064004080B500AF054B1B78002B04D1FFF7BEFF024B01221A70FFF7E3FF80BD1482FF1F80B483B000AF0346FB71044AFB7913700C37BD4624
:402780005DF8047B704700BF8064004080B400AF034B1B78DBB21846BD465DF8047B70476064004080B483B000AF0346FB80044AFB8813800C37BD465DF8047B704700BF9C
:4027C0004468004080B400AF034B1B889BB21846BD465DF8047B70478468004080B483B000AF0346FB80044AFB8813800C37BD465DF8047B704700BF0468004080B400AF57
:40280000044B1B78044B1B889BB21846BD465DF8047B7047026400408468004080B400AF054A054B1B78DBB243F01003DBB21370BD465DF8047B70477064004080B483B0B8
:4028400000AF0346FB71FB7903F00303FB710A4A094B1B78DBB223F00303DBB213700649054B1B78DAB2FB791343DBB20B700C37BD465DF8047B70477064004080B500AFD1
:4028800001E0FFF79FFFFFF781FF034603F00803002BF6D180BD00BF80B483B000AF0346FB71044AFB7913700C37BD465DF8047B704700BF7164004080B500AF012000F04E
:4028C00057F8144A134B1B78DBB223F02003DBB21370104A0F4B1B78DBB223F00403DBB213700C4A0B4B1B78DBB243F00803DBB21370094A084B1B78DBB223F01803DBB2CE
:402900001370054A044B1B78DBB243F01003DBB2137080BD43580040DF5A004080B400AF094A094B1B78DBB243F00803DBB21370064A064B1B78DBB243F00803DBB2137068
:40294000BD465DF8047B7047A7430040B743004080B500AF054B1B78002B04D1FFF7ACFF024B01221A70FFF7D9FF80BD1582FF1F80B483B000AF0346FB71164B154A12782E
:40298000D2B2D2B222F00302D1B2FA7902F00302D2B20A43D2B2D2B21A70FB79012B0AD10D4B0E4A1278D2B21A700D4B0D4A1278D2B21A7009E0084B0B4A1278D2B21A7075
:4029C000074B0A4A1278D2B21A700C37BD465DF8047B70474358004036460040130100493746004017010049B3010049BB01004980B500AF00F062F9034B1B78FF2B01D1A8
:402A000000F024F880BD00BF4C81FF1F80B500AF054B1B7818460121FEF7C8F900F0E4F900F06AF980BD00BF1782FF1F80B500AF054B1B78002B04D1FFF7DAFF024B0122CD
:402A40001A70FFF7E3FF80BD1682FF1F80B500AF0120012141F6FF724FF4804300F0FAF803461A46124B1A70FEF7C2FA03461A46104B1A700F4B1A780E4B1B78104610211C
:402A80001A460123FEF7E2FA0A4B1A780A4B9BB21046194645F68132FEF718FB044B1A78044B1B7810461946FEF734FA80BD00BF1782FF1F4C81FF1F3C81FF1F80B500AF95
:402AC0000A4B0C221A700A4A094B1B78DBB243F02003DBB21370074B80221A70022000F05BF8032000F03CF880BD00BF04580040055800400658004080B400AF0D4A0D4B0C
:402B00001B78DBB243F00203DBB213700A4A0A4B1B78DBB243F00203DBB21370074A074B1B78DBB263F07F03DBB21370BD465DF8047B7047A9430040B9430040775800406F
:402B400080B500AF054B1B78002B04D1FFF7B6FF024B01221A70FFF7CFFF80BD1882FF1F80B485B000AF0346FB710A4B1B78DBB223F00303FB73FB7903F00303DAB2FB7BF8
:402B80001343FB73034AFB7B13701437BD465DF8047B70470558004080B588B000AF0346FB71284A07F114031068516803C3127A1A70254A07F108031068516803C3127A41
:402BC0001A70FB79082B39D8204A204B1B78DBB223F07F03DBB213701C481C4B1B78DAB2FB7907F120010B4413F80C1CFB7907F1200E734413F8183C9B00DBB203F00C0326
:402C0000DBB20B43DBB21343DBB20370104A104B1B78DBB223F00C03DBB213700C490C4B1B78DAB2FB7907F12000034413F8183C1343DBB243F00C03DBB20B702037BD464B
:402C400080BD00BF7C81000088810000065800400558004090B585B002AF0446084611461A462346FB710346BB710B46BB8013467B80114B01221A700F4B1878F979BA79DB
:402C800000230093002301930023FEF761F90A4B1978BA887B88084611461A46FEF7FCF8054B1B7818460221FEF7C6F8024B1B7818460C37BD4690BD5081FF1F80B500AF61
:402CC0000A4B00221A700A4B00221A70094A094B1B78DBB243F00803DBB21370042000F045F8022000F022F880BD00BF24580040255800408F5A004080B400AF094A094B18
:402D00001B78DBB243F00203DBB21370064A064B1B78DBB243F00203DBB21370BD465DF8047B7047A8430040B843004080B483B000AF0346FB710C4A0B4B1B78DBB223F084
:402D40000203DBB213700849074B1B78DAB2FB7903F00203DBB21343DBB20B700C37BD465DF8047B704700BF2458004080B582B000AF0346FB710C4A0B4B1B78DBB223F02F
:402D80000C03DBB213700849074B1B78DAB2FB7903F00C03DBB21343DBB20B7000F006F80837BD4680BD00BF2458004080B483B000AF0B4B1B78DBB203F00C039B08DBB22B
:402DC0000633FB71074AFB7903F1924303F598731B78DBB213700C37BD465DF8047B7047245800400946004080B400AF094A094B1B78DBB243F00203DBB21370064A064B4B
:402E00001B78DBB243F00203DBB21370BD465DF8047B7047A2430040B243004080B582B000AF786000F03CF8786800F009F8072000F018F800F028F80837BD4680BD00BFEA
:402E400080B485B000AF7860054B1B68FB60FB6840337A681A601437BD465DF8047B704708ED00E080B483B000AF0346FB71054AFB795B01DBB213700C37BD465DF8047B40
:402E8000704700BF00E400E080B400AF034B01221A60BD465DF8047B704700BF00E100E080B400AF034B01221A60BD465DF8047B704700BF80E100E080B582B000AF7860B2
:402EC00000F03CF8786800F009F8072000F018F800F028F80837BD4680BD00BF80B485B000AF7860054B1B68FB60FB6844337A681A601437BD465DF8047B704708ED00E066
:402F000080B483B000AF0346FB71054AFB795B01DBB213700C37BD465DF8047B704700BF01E400E080B400AF034B02221A60BD465DF8047B704700BF00E100E080B400AF82
:402F4000034B02221A60BD465DF8047B704700BF80E100E080B582B000AF632000F05AF8632000F073F800F0D7FC0346FB710A4A094B1B78DBB243F01003DBB21370FB7914
:402F8000184600F0CDFC00F071F8002000F026F80837BD4680BD00BF9B65004080B400AF054A054B1B78DBB263F07F03DBB21370BD465DF8047B70477B65004080B500AFDC
:402FC000054B1B78002B04D1FFF7C4FF024B01221A70FFF7E3FF80BD1982FF1F80B483B000AF0346FB71044AFB7913700C37BD465DF8047B704700BF8B65004080B400AFBA
:40300000034B1B78DBB21846BD465DF8047B70476B65004080B483B000AF0346FB80044AFB8813800C37BD465DF8047B704700BF546A004080B400AF034B1B889BB21846DB
:40304000BD465DF8047B7047946A004080B483B000AF0346FB80044AFB8813800C37BD465DF8047B704700BF146A004080B500AF01E0FFF7DFFFFFF7C1FF034603F0080362
:40308000002BF6D180BD00BF80B582B000AF786000F03CF8786800F009F8072000F018F800F028F80837BD4680BD00BF80B485B000AF7860054B1B68FB60FB6860337A68D4
:4030C0001A601437BD465DF8047B704708ED00E080B483B000AF0346FB71054AFB795B01DBB213700C37BD465DF8047B704700BF08E400E080B400AF034B4FF480721A6072
:40310000BD465DF8047B704700E100E080B400AF034B4FF480721A60BD465DF8047B704780E100E080B582B000AF41F2873000F05FF841F2873000F077F800F0EDFB0346E0
:40314000FB710C4A0B4B1B78DBB243F01003DBB21370FB79184600F0E3FB00F085F8002000F092F800F0B0F8032000F025F80837BD4680BD9564004080B400AF054A054B18
:403180001B78DBB263F07F03DBB21370BD465DF8047B70477464004080B500AF054B1B78002B04D1FFF7BEFF024B01221A70FFF7E3FF80BD1A82FF1F80B483B000AF0346C2
:4031C000FB71044AFB7913700C37BD465DF8047B704700BF8564004080B400AF034B1B78DBB21846BD465DF8047B70476564004080B483B000AF0346FB80044AFB881380E1
:403200000C37BD465DF8047B704700BF4868004080B400AF034B1B889BB21846BD465DF8047B70478868004080B483B000AF0346FB80044AFB8813800C37BD465DF8047B79
:40324000704700BF0868004080B400AF044B1B78044B1B889BB21846BD465DF8047B7047046400408868004080B400AF054A054B1B78DBB243F01003DBB21370BD465DF810
:40328000047B70477464004080B483B000AF0346FB71FB7903F00303FB710A4A094B1B78DBB223F00303DBB213700649054B1B78DAB2FB791343DBB20B700C37BD465DF800
:4032C000047B70477464004080B500AF01E0FFF79FFFFFF781FF034603F00803002BF6D180BD00BF80B582B000AF786000F03CF8786800F009F8072000F018F800F028F862
:403300000837BD4680BD00BF80B485B000AF7860054B1B68FB60FB6848337A681A601437BD465DF8047B704708ED00E080B483B000AF0346FB71054AFB795B01DBB213704F
:403340000C37BD465DF8047B704700BF02E400E080B400AF034B04221A60BD465DF8047B704700BF00E100E080B400AF034B04221A60BD465DF8047B704700BF80E100E0B9
:4033800080B483B000AF0346FB71044AFB7913700C37BD465DF8047B704700BF7564004080B500AF012000F057F8144A134B1B78DBB223F02003DBB21370104A0F4B1B78A7
:4033C000DBB223F00403DBB213700C4A0B4B1B78DBB243F00803DBB21370094A084B1B78DBB223F01803DBB21370054A044B1B78DBB243F01003DBB2137080BD40580040CF
:40340000C75A004080B400AF094A094B1B78DBB243F00103DBB21370064A064B1B78DBB243F00103DBB21370BD465DF8047B7047A7430040B743004080B500AF054B1B7879
:40344000002B04D1FFF7ACFF024B01221A70FFF7D9FF80BD1B82FF1F80B483B000AF0346FB71164B154A1278D2B2D2B222F00302D1B2FA7902F00302D2B20A43D2B2D2B2F1
:403480001A70FB79012B0AD10D4B0E4A1278D2B21A700D4B0D4A1278D2B21A7009E0084B0B4A1278D2B21A70074B0A4A1278D2B21A700C37BD465DF8047B70474058004068
:4034C00030460040100100493146004014010049AD010049B501004980B500AF00F062F9034B1B78FF2B01D100F024F880BD00BF6481FF1F80B500AF054B1B781846012153
:40350000FDF754FC00F0E4F900F06AF980BD00BF1D82FF1F80B500AF054B1B78002B04D1FFF7DAFF024B01221A70FFF7E3FF80BD1C82FF1F80B500AF0120012141F6FF723E
:403540004FF4804300F0FAF803461A46124B1A70FDF74EFD03461A46104B1A700F4B1A780E4B1B78104610211A460123FDF76EFD0A4B1A780A4B9BB2104619464FF4B7424A
:40358000FDF7A4FD044B1A78044B1B7810461946FDF7C0FC80BD00BF1D82FF1F6481FF1F5481FF1F80B500AF0A4B0C221A700A4A094B1B78DBB243F02003DBB21370074B2E
:4035C00080221A70022000F05BF8032000F03CF880BD00BF08580040095800400A58004080B400AF0D4A0D4B1B78DBB243F00403DBB213700A4A0A4B1B78DBB243F0040315
:40360000DBB21370074A074B1B78DBB263F07F03DBB21370BD465DF8047B7047A9430040B94300407758004080B500AF054B1B78002B04D1FFF7B6FF024B01221A70FFF76B
:40364000CFFF80BD1E82FF1F80B485B000AF0346FB710A4B1B78DBB223F00303FB73FB7903F00303DAB2FB7B1343FB73034AFB7B13701437BD465DF8047B704709580040C5
:4036800080B588B000AF0346FB71284A07F114031068516803C3127A1A70254A07F108031068516803C3127A1A70FB79082B39D8204A204B1B78DBB223F07F03DBB21370DA
:4036C0001C481C4B1B78DAB2FB7907F120010B4413F80C1CFB7907F1200E734413F8183C9B00DBB203F00C03DBB20B43DBB21343DBB20370104A104B1B78DBB223F00C0342
:40370000DBB213700C490C4B1B78DAB2FB7907F12000034413F8183C1343DBB243F00C03DBB20B702037BD4680BD00BF94810000A08100000A5800400958004090B585B006
:4037400002AF0446084611461A462346FB710346BB710B46BB8013467B80114B02221A700F4B1878F979BA7900230093002301930023FDF7EDFB0A4B1978BA887B880846A1
:4037800011461A46FDF788FB054B1B7818460221FDF752FB024B1B7818460C37BD4690BD6881FF1F80B500AF0A4B00221A700A4B00221A70094A094B1B78DBB243F0080373
:4037C000DBB21370042000F045F8022000F022F880BD00BF2058004021580040875A004080B400AF094A094B1B78DBB243F00103DBB21370064A064B1B78DBB243F00103C5
:40380000DBB21370BD465DF8047B7047A8430040B843004080B483B000AF0346FB710C4A0B4B1B78DBB223F00203DBB213700849074B1B78DAB2FB7903F00203DBB21343B4
:40384000DBB20B700C37BD465DF8047B704700BF2058004080B582B000AF0346FB710C4A0B4B1B78DBB223F00C03DBB213700849074B1B78DAB2FB7903F00C03DBB2134314
:40388000DBB20B7000F006F80837BD4680BD00BF2058004080B483B000AF0B4B1B78DBB203F00C039B08DBB20633FB71074AFB7903F1924303F590731B78DBB213700C374A
:4038C000BD465DF8047B7047205800400846004080B400AF094A094B1B78DBB243F00803DBB21370064A064B1B78DBB243F00803DBB21370BD465DF8047B7047A24300403A
:40390000B2430040000000000230800803D000BF01380046FCD17047EFF3108072B6704780F31088704700BFF0B505468DB0002800F0248100210C22684602F029F8002116
:403940000C2203A802F024F80021142206A802F01FF8002328460B9302F053F900286C46C0F20C81284602F05FF92846694602F010FA0028C0F20281824B019903F14802F9
:4039800018681E46884202D80C339342F8D1B388019F0B96B7FBF3F7384600F088FDBDF808100446C900784302F06EF8202C4FEA4000B3680CD021301A461446D218D11A08
:4039C0008142FAD9241A5A1E22421DD0E4181BE01C4601301A460127D118824202D801370A46F9E70198B188C31A9A1AB2FBF1F0BDF808104001C90002F046F8B3684000D6
:403A00005F433F1AADF81070019B47F6A7721B1B934201D801220EE0B3F5803F01D2042209E0B3F5800F01D2062204E0564A934294BF0B220C228DF82020544A019E069362
:403A4000079402F1500017681146B74202D808328242F8D1621E0879D2184B79ADF8000000FB03F1B4FBF1FC01FB1C4EADF824C0B2FBF1FC01FB1C21BEFBF3FEB1FBF3F11D
:403A80008DF821E08DF82610B4FBF3FEB2FBF3F103FB1E4403FB1122013401328DF822408DF82720ADF828C0ADF8023002F01EFA0446002862D0364B00271A8A002101F078
:403AC00067FF84F8BE719DF8212004F5DE7384F8BF21BDF824009DF8221000F4407001F03F01033341EA90015970BDF824105A1C5170531C9DF820205E1C5A709DF8262086
:403B0000731C7270BDF828109DF8272001F4407102F03F0242EA91025A70581CBDF8283043700799023001F0D5FF06F10800069901F0D0FF04F5FF704AF6552101F0D4FFDE
:403B40002846394622463B4602F0D8F8B84214BF4FF0FF363E46204602F0DEF976B94FF40073ADF80E300B9B0CA99B88284621F8243DCDF814D003F0C9F801E04FF0FF30DF
:403B80000DB0F0BDAC810000FF03FB00F481000030D3FF1F10B5002102F08CFBBDE81040FFF7C2BE0346002007E011F810C0BCF1FF0F04D003F800C001309042F5DB704714
:403BC00000220346104607E013F802C00232BCF1FF0F03D00130C0B28842F5DB704710B54FF0000C002B07DD11F8014B0CF1010C04700024447004E003D04FF0FF34047033
:403C00004470013A02D00230013BEBE7604610BDA0F161039BB2192B98BF00F0DF0070472DE9F84504460D4617460026A319AA195878A35D92F801A0AA5D43EA002042EA40
:403C40000A2AFFF7E5FF80465046FFF7E1FF804502D00120BDE8F8850236013FE6D13846BDE8F88500230146184610F0010F4FEA5002C85C14BF42F08002D2B2013310186D
:403C80000B2BC0B2F1D1704783685B1883607047014A024B1A607047448200006C81FF1F2DE9FF411F1E04460D4626DB1830694601F054F929466A46204601F0D7F98046DF
:403CC000684601F055F9029BBB42F3DD98F8006006F03F066FF01A0388F80030284602F02FF929466A46204601F0C0F98046684601F03EF9013E6F46ECD1BDE8FF8110B528
:403D00000B46044611B901F086FE03465A1E1946A41804E0621AD25C202A02D1013B002BF8D1184610BD08B50B4611B901F073FE03460C330D2293FBF2F008BD2DE9F04754
:403D400004460D461F469DF8208016461AB9084601F061FE064631462846FFF7E4FF002182462022204601F013FEFBB25745237004BF43F0400323700F23E37284F80D806A
:403D80001EB9284601F047FE06460D23013F5F43F61BE91905223346601CFFF720FFC719E9190622731F04F10E00FFF718FF3F18E91904F11C000222A6F10B03BDE8F0472B
:403DC000FFF70DBF2DE9F04F95B090469DF87C2081460591404619460692FFF790FF074639464046FFF79FFF1E9A064610A909F1180001F0B3F80D2397FBF3F203FB127386
:403E000007934FF0FF33354604934FF0000B9A4610AB1A4648460599039301F027F9039B044600286DD00278002A69D0E52A03D1184601F09DF8EBE7554527D0002D48D0B4
:403E4000002300933A4608A841462B46FFF776FF079AE2B9227806F140039A4217DD20460378002B4CD0C37A10AC0F2B08D1204601F07EF848460599224601F0F7F8EFE7CE
:403E80002046AA4601F074F83546C1E70DB322789DF820309A420ED1601C0DF121010522FFF7BEFE38B904F10E000DF12E010922FFF7B6FE00E00120B542637B03D19B463C
:403EC000129B049301E05B4513D190B96C1EAA4611E02046FFF7C6FE58450BD1069AE37A02EA0303934205D1209B53B1049A1A6007E0AA46344610A801F03AF8254687E756
:403F00000024204615B0BDE8F08F2DE9F8451646002204460D4601F051F800285AD0204620210B2201F034FD0127334603E00A22013793FBF2F3092BF9DC4FF0000A19E078
:403F4000287810F0800F02D04FF05F0803E001F094FD5FFA80F80135B8F1000F0ED0B8F12E0F0BD0404600F0B5FA18B104F8018B0AF1010AC7F107039A45E1DB7E23A04677
:403F800008F8013BE3190A2196FBF1F201FB1261303103F80119A3421646F4D100266C1C20462E2101F075FD054608B10126F6E786B1B8440646605D01F05FFDC7B24FB16F
:403FC000384600F087FA10B108F8017B01360135022EF0DDBDE8F8852DE9F04F038A89B004460D46904687692BB907F118002146626900F0B3FF38464146224601F036F837
:404000000646204600F0B4FF002E00F0C3803378002B00F0BF80E52BEDD0F27A082AEAD00F2A0CD068693146AA6900F06DFA3046294600F0F9FA238A01332382A8E003F010
:404040003F0B96F80D904FF0000A5E4610E038464146224601F00AF810B94FF0010A09E0437B20464B4518BF4FF0010A00F080FF013EECD141462246384600F0F7FFFFF709
:40408000F1FDBAF1000FB6D14845B4D16E69CDF818B0002E59D00BF1FF39D346BA462F4620464FF0FF31FFF7EFFD22464146504600F0DCFFB969431C054607911846052153
:4040C0000193FFF77DFD05F10E0102460491084606210292FFF774FD1C35844602212846CDF80CC00595FFF76BFD029ADDF80CC0079962445A4412189142019B09DC204630
:40410000C9F100013D46FFF7BFFD57464FF0010A1DE0194630460522FFF744FD0499054606223018FFF73EFD4519701905990222FFF738FD28183618B9F1000F03D083443A
:4041400009F1FF39ACE73D4657464FF0000A20460699FFF799FD38464146224600F086FF0746BAF1000F05D068693946AA6900F0CBF902E00EB186F800A03846294600F00F
:4041800053FA238A2046013323820121FFF77CFD002001E04FF0FF3009B0BDE8F08F2DE9F04FA3B00C469DF8B41006930791BDF8BC30BDF8C010054610461646089309910D
:4041C00001F029FCFF2800F2298130460021FFF796FD00220490B35C3B2B00F01F8104D82B3B012B00F21F8118E15B2B00F016815D2B00F013813D2B40F015810EE10021BB
:4042000020220BA801F0C4FB1FA831463A46FFF77CFE059813A9069A00F0A0FE2846214613AA00F023FF8246002844D00378002B41D04FF000081AF808307E2B07D008F1BB
:404240000108B8F1080F32D0002BF4D12FE0C8F1070B50461FA9CBF1070201F089FB30BB0AF1080021A9032201F082FB0346F0B91AF808207E2A1AD108F10108C2440246B7
:404280001AF80310013330390A209B4500FB0212F6D1D21BFF2A0AD8D308093802F0070210FA02F20BA9C85C42EA0000C85413A800F05EFEB2E7002202F007034FF0010829
:4042C00008FA03F822A901EBD20313F85C3C18EA030802D1D21910D404E00132B2F5807FEAD10AE01FA83146FFF70FFE05981BA9069A00F033FEB24606E0B7F5806F00F0B5
:404300008D8007F580777AE7284621461BAA00F0ADFE0746002836D1069B13B92B8E002B7DD121461B9A0023284600F0E9FA214602460023284600F08DFC0646204601F0F0
:4043400092FF002E6BD00021AA8BA06801F020FB3146059800F0B8F895F834B000260BF1FF373F1808E039462046012201F058FF204601F031FF013F0136C6EB0B03B3F16C
:40438000FF3FF0D1A7683B7823B1E52B02D04FF000080CE0B8F1000F05D10DF15C0C1BAB0FCB8CE80F00C84505D008F101081BA800F0DEFDA8E71FA8FFF754FC56468246CA
:4043C0000DF15C0828462146424600F04FFE074628B34B463146049ACDF800A0FFF7AEFC204601F0ADFD404600F0C2FDB9F10109E6D121464246284600F038FE2E9B089960
:404400000093099B019102931FA92C9A079B074601F090F8204601F093FD00E00027384623B0BDE8F08F0499013291427FF4D3AE05F1180330460593FFF775FC00278146BA
:40444000DDE60C2802D0102805D102E001EB510070474800704788007047036840689B685B6AB0FBF3F0704710B5046D836CE4B199421AD3E318994217D2013B99420CBF0E
:404480004FF0FF31013172B190F836300C2B02D0102B05D102E00905090D03E089B201E021F070411160012010BD002010BD40F6F473984201D80C2070474FF6F473984264
:4044C00094BF102020207047027F8368023902FB01307047431EDBB21F2B13D92F2811D007D826280ED002D8222809D10AE02A3804E03A2804D33F2804D95B38022801D90D
:404500000120704700207047034638B30B2A01DD0B2200E0013A00201CE0082809D191F808C0BCF1200F0DD04FF02E0C03F801CB08E038B991F800C0BCF1050F02D1ACF17A
:40454000200C04E011F800C0BCF1200F01D003F801CB01309042E0DB00221A7070472DE9F04788B005AE04460D463046114600229A469DF84490BDF84C80BDF8507000F0DA
:404580001DFD08B1002413E020462946524600F00EFE044660B1129B31460093109A4B46CDF80480029700F0C5FF284601F0C8FC204608B0BDE8F08710B59DF80C4003942B
:4045C000BDE8104000F0D8BD2DE9F04F144E87B0109DDDF848809DF84440376800950194CDF8088005937F68934682468946B84732680C4BDDF814C09A420DD060B95046EA
:4046000049465A46634610951194CDF8488007B0BDE8F04FFFF7D0BF07B0BDE8F08F00BF6C81FF1F5482000070B5C37A04460B7010300D4601F05CFA064604F10E0001F0EF
:4046400057FA40EA0640686004F1120001F050FA0004A86004F1180001F04AFA064604F1160001F045FA40EA0640E86004F11C0001F025FA286170BD2DE9F845038A0446E1
:404680000E46924687692BB907F118002146626900F064FC38465146224600F0E7FC0546204600F065FCD5B12B78C3B1E52BF1D095F80B80B8F10F0FECD018F00808E9D13B
:4046C00070692946B269FFF71FFF28463146FFF7ABFF238A404601332382BDE8F8854FF0FF30BDE8F885022201F09ABD2DE9F04790F8366005460C46304611469146FFF7F2
:40470000A0FEB5F81E80AB6A20FA08F89845824602D30020BDE8F0876B8E05F118079844204641463A46FFF7DEFF204601F09FFD18B14FF0FF30BDE8F087AA8BA168013AC2
:404740000AEA020A1FFA8AFA92450AEB01031AF8015001D0013309E0204608F101013A46FFF7C1FF204601F082FDA36818780C2E45EA002009D0202E0FD15D7840EA05409F
:404780009D7840EA0560BDE8F08719F0010F02D00009BDE8F0870005000DBDE8F08700002DE9F34190F83630144603FB02F7828B8846D200511E0F40D71B0546B7FBF3F72E
:4047C000002618E00E4B93F88030022B05D12846214601AAFFF748FE28B9284641462246FFF784FF0190019B0134A34205D10136B6B2013F1C46002FE4DC3046BDE8FC81AC
:4048000030D3FF1F2DE9F34105460E46144698461F681CE0114B93F88030022B05D12846214601AAFFF720FE28B9284631462246FFF75CFF0190737B0BB100240BE0AA6BA7
:40484000019B0132934204D81BB1013F1C46002FE0D1C8F800702046BDE8FC8130D3FF1F73B504680E4623681BB9FFF7F6FD013039E0FFF7F2FD236998423CBF4FF0FF3360
:4048800023612369B3F1FF3F04D12268013323616261E3832169E28B451A954234BF2B4613463BB16069C918C018D21A60612161E283ED1A0DB9284615E002AB43F8045D61
:4048C00031466269A068FFF79DFF6061019B21690246C91A4D19256123B9A0683146FFF75FFFE08301987CBD13B502AC44F8043D2346FFF787FF019B002B18BF00201CBD8B
:404900002DE9F0410746884615461E460024384641462A460123FFF7E7FF30B1BA6B0134944201D80546F2E7002406B134602846BDE8F0812DE9F74F04460D461E46174602
:40494000002A00F0B98090F836001146FFF779FDB4F81EA0A36A20FA0AFA9A45814680F0AB80638E04F118089A44284651464246FFF7B9FE284601F07AFC6B7B002B40F059
:404980009B80A38BAA68013B09EA03091FFA89F303EB020926B9216C8F4203D2276401E0791C216494F8361010290AD0202911D1484601F084F831460746484601F08AF86B
:4049C0004EE0484601F094F8B1B20746484601F08BF845E028460092019301F0B1FA009A019B17F0010F13F802B01BD00BF00F0141EA06119954A28B013A934202D009F13F
:404A0000010309E028460AF101014246FFF76BFE284601F02CFCAB681F7832093F0147EA1B171CE09E54A28B013A934202D009F1010309E028460AF101014246FFF753FE0A
:404A4000284601F014FCAB681A78310A02F00F0701F00F0122F00F024BEA07270A431A70284601F06DFA94F83630202B18D1B4F84620AAB9B4F84410284601F0D1FB284687
:404A800001F0F5FBA8684FF0FF3100F5F47001F021F8284601F054FA4FF00103A4F84630E36BB3F1FF3F09D00FB10133E3632EB1E36B013BE36301E0012000E00020BDE898
:404AC000FE8F6FF07043FFF735BF70B5036D04460E4693B1002506E0AA1820463146531CFFF728FF0135236DA26C013B9D42F3D320463146AA18FFF7E4FF0023A3642365A1
:404B0000E364636570BD70B506460D461C460AB1FFF710FF304629462246BDE87040FFF7D0BF00002DE9F84504460E4615461F46002B36D01C4B93F88030022B31D190F8F1
:404B4000368011464046FFF77CFCB4F81CA00AF1FF3A2AEA000A4FEACA0ABAFBF8FAAA44A8460EE0204631464246FFF7BFFD50B9A36C0BB9C4F84880E36C08F10108013300
:404B8000E364D045EED9E36C5BB167653B685A6922B1204631462B46FFF7CCFE236D01332365BDE8F88500BF30D3FF1F2DE9F8459846274B054693F880300F46022B16460F
:404BC000846B19D1436D984503D0C36C0BB1FFF77CFFB8F1000F0FD06B6D43450CD12B6DEA6C9A4204D9AC6C1C1901332B652CE028463946FFF769FF012E04F1010A01D934
:404C0000564505D92E6C012E01D9564500D902263446284639462246FFF768FD50B101345445F6D902240DE0284639462246FFF75DFD30B92846394622464346FFF772FF0E
:404C400003E00134B442EFD300242046BDE8F88530D3FF1FF8B507460E461546FFF7A6FF044628B1384631462A462346FFF74BFF2046F8BDB2F1FF3F73B504460D4614D07D
:404C8000561A013611D001F0E3FA084B00211A8AA06800F07DFE022300936068A3682946324601F021F80023E3737CBD30D3FF1F2DE9F84F984690F8363004460C2B0D46C7
:404CC00016465AD04FF0FF3AD1463CE094F836003146FFF7B6FBB4F81CB0678E0BF1FF3B10EA0B0BE38B1DD1D840013F3F1802222846394601F094FAA38BAA689B0852F828
:404D00000B1079B9013B0BF1040BF8D13BE0494628465246FFF7AEFFB946BB46284601F012F9DA462946324601232046FFF7DCFD29460746324620460023FFF7FBFD2FB16E
:404D400008F1FF383E46B8F1000FBFD1284649465246FFF78FFF13E02946324601232046FFF7C2FD29460746324620460023FFF7E1FD2FB108F1FF383E46B8F1000FEBD16C
:404D80004046BDE8F88F0AF1010B5F45BFD1C5E72DE9F845054601F0A9F8044608B90546D0E0284600F0E1FF684E338A834208D338B10021284622460B4600F054FF002837
:404DC00004DA204601F0A8F80025BBE004F5FF7000F08EFE4AF65523984240F0AD8004F10B0000F085FE10F47E4F074600F0A480338A8342C0F0A080237C022B40F09C803C
:404E000094F80D80B8F1000F00F096800021402205F1180000F0BCFD04F1130000F068FE064620B904F1200000F049FE064604F1160000F05DFE824680B904F1280000F0E2
:404E400057FE10F08F0F77D104F1240000F037FE824604F12C0000F032FEE862022385F83530C5F828A0AE6185F8348004F10E0000F03EFE688604F1110000F039FE95F8C3
:404E800035206B8E288602FB0A3A7A0992B2B0FBF2F25244AF832A62092301219940B94201D1EB8302E00133102BF6D108FB07F7B61AB6FBF8F6AE636F623046FFF7F7FAE2
:404EC000202818BFC5F82CA04FF0FF33202885F83600EB6332D104F1300000F009FE00230146A5F844002246284600F0BCFE002822DB204600F0E3FD804604F5F27000F0FA
:404F0000DEFD074604F5FE7000F0D9FD104B984514D1104B9F4211D10F4B98420ED104F5F67000F0CCFD286404F5F47000F0C7FDB04203D8E86301E0002500E0012520468F
:404F400000F0EAFF2846BDE8F88500BF30D3FF1F5252614172724161000055AA00238B60837F202B01D102B942694A600A60704783680133836070472DE9F0410C4620212C
:404F800005461F469DF818604FF0000800F000FD10E014F8080036B9E52804D1B8F1000F01D1E03802E000F068FDC0B205F8080008F10108B845ECDBBDE8F0812DE9F745AD
:404FC00006460D4608462849002A14BF92464FF0FF3A00F013FD804650B930462946022200F0EAFEB01C2021092200F0D1FC37E04FF0FF34002715F80780B8F1000F01D094
:40500000574505D1B4F1FF3F08BF3C4664B925E04046FFF75FFA08B3B8F12E0F08BF3C4601370D2FE7D119E0082C17DC3F1B042F14DC30462946082223464FF00008CDF8A4
:405040000080FFF799FF0123611C009306F10800691803227B1EFFF78FFF01E04FF001084046BDE8FE8500BF648200002DE9F74FD2F808B0436A4FEA4B18B8FBF3F8D368B0
:40508000054698450E461446D2F8009001D20023D360B5F81EA0E368AAF1050A0BB9D4F804902BFA0AF7B9F1000F17D095F83420B8EB0303019206D04A4628463146FFF7EF
:4050C00013FC814640B3494605F11800FFF7FCF9019B591E01EA0707C11906E02B8E43FA0AF39F4218D2E96A79183046C4F80090C4F80C80012201F093F8304601F0B7F832
:4051000050B9013000FA0AFAB3680AF1FF3A0AEA0B0B03EB4B1000E00020BDE8FE8F2DE9FF4107460E4601A811461A460A9D9DF82C40FFF743FFC8B9384631462A46FFF750
:4051400095FF8046A0B1037883B101A90B2200F00FFC38B998F80B3004EA0302A24201D1082B05D12846FFF703FFE5E74FF00008404604B0BDE8F0812DE9F04587B002AF99
:4051800004460E46154698469DF83CA039460E9A1830FFF7E3FE204631462A4643460097CDF804A0FFF7BBFF07B0BDE8F0852DE9F04500F1180785B005460C4638466946B0
:4051C0009246FFF7CBFE284621466A46FFF74EFF06466846E846FFF7CBFE002E37D1BAF1000F02D12B8E002B35D12146009A00232846FFF785FB2146024600232846FFF77E
:4052000029FD8046204601F02EF8B8F1000F22D0AA8B0021A06800F0BBFB38464146FFF753F995F8347000257E1E361808E031462046012200F0F4FF204600F0CDFF013EA4
:4052400001357B1BB3F1FF3FF1D1A66803E033780BB1E52BB7D1304605B0BDE8F08538B504461A3000F044FC054604F1140000F03FFC45EA004038BD2DE9F0451D4685B012
:4052800007460E462A6010465C21904600F001FC4FF0000A0446A04508D108F10108C5F8008040465C2100F0F4FB044694B1C8EB0403002B0EDD10220192103A029238463B
:4052C00031464246CDF800A0FFF77EF970B1FFF7C6FF824628685C2100F0DBFBA04604460028D8D10C9B0130C3F800A005B0BDE8F085F8B505460C461E461746DAB16FF06E
:405300001A031370084600F01BFE16B94FF47A7608E007F11C0000F0D2FB6B6A5E1E3618B6FBF3F63846FFF79AFF2146024633462846FFF7BDFC607BF8BD00002DE9F04F4B
:40534000D1F8008093B0D8F808700BAD044608930E464FF0FF333946284609920F939DF870A000F041FE10AB009338462946224611ABFFF781FFD0B1F27A109B07920FAA3A
:4053800000930292002338462946119A0193FFF71BF9044680B1C37A13F0100F07D10D9BDDF82CB0C3EB00094FEA691906E0284600F050FF0125A3E083468146099B002B55
:4053C0003CD0002C33D0524B5D6912E02B687BB1AA7A6AB19A8B4A450AD19A695A4507D19B68BB4204D14FF6F772328100257EE0ED68002DEAD10DF12C0C6146384622465D
:405400000123CDF818C0FFF774FFDDF818C018B14FF0FF3333816AE03E4B1B68DC6824B138466146109A0F9BA0472C4606E0BAF1000F03D1089A002A44D065E0089BEBB18E
:40544000CCB1E37A13F0010F0BD0079A12F0150F07D04FF6FA733381BAF1000F01D1012500E000252046FFF7FAFE074604F11C0000F025FB29E0BAF1000F45D0BAF1010F54
:4054800001D000251BE0ECB901F004FD214B20221B68019282B2000C03920490009402949D6838460BA9119A109BA84750B10D9ADDF82CB0C2EB00094FEA691925462846EE
:4054C0002F4602E00125002007464FF0FF33C8F81030C8F818B0A8F81C90079AC8F8040012F0010308BF1846C8F800707060B6F908300BA835EA230528BF012500F0AAFE67
:40550000284613B0BDE8F08F01255046DCE700BF30D3FF1F6C81FF1F70B505460C461A3089B200F0E1FA05F11400210CBDE8704000F0DABA2DE9F0470446BDF824700D4657
:405540009146002120229A46BDF82860DDF8208000F01EFA0B222046294600F02DFC04F10E00394684F80BA000F0BEFA04F11000314600F0B9FA04F11600394600F0B4FAA4
:4055800004F11800314600F0AFFA20464946FFF7C3FF04F11C004146BDE8F04700F09ABA7FB590F836300446202B22D1B0F84630FBB12146684600F017FD6846B4F844102E
:4055C000002200F02DFE68466D4600F050FE68B9029EE16B06F5F47000F07CFA06F5F670216C00F077FA684600F0AAFC684600F031FE7FBD07B5426803460AB910460AE0AF
:4056000081680020009048681968DB6800F04AFB003818BF01200EBD2DE9F047046805460F46A668FFF71CF981468246002841D0D4F80080B8F1000F1BD142463046394686
:405640002B46FFF7B3FA0246D8B11C4B6061C4F8108093F880302060022B07D030463946FFF72FFA10B10120BDE8F087B9F1010A20D03046394662692B46FFF797FA8046DD
:4056800028B94FF6FE732B810130BDE8F0870B4B93F88030022B05D03046394662694346FFF731FA2369C4F8148001332361BAF1010ADDE70020BDE8F08700BF30D3FF1F33
:4056C0002DE9F041836804460D4608460122A1699E8B00F0A5FD2846B4F81C80AF6800F0C6FDF8B9013E06EA4816B6B2BE1906F11C00616800F0EEF921683046FFF70CFFF5
:4057000001F0C8FB0446A1B206F1160000F0ECF906F11800210C00F0E7F92846BDE8F04100F0A1BDBDE8F0817FB50668B0F90830B568C3B9C37A13F0110F14D02946684605
:4057400000F052FC30466946FFF7BAFF064B6C4693F88030022B03D128466946FFF7B5F9684600F077FD7FBD30D3FF1F03682DE9F04F9F68038995B001339BB2012B044619
:405780000E46059201D90025CEE0394610AD0CA800F02AFC3946284600F026FC039626680023D6F808909A4609F118010791D9F82420059906924FF0FF32099308920A9581
:4057C0000291049320460CA9FFF726FF38B108A8FFF710FF5546002818BF00258FE03269069901324A43B9F81CB063680BF1FF3BD21A0BEA030B029B0798934228BF1346C5
:4058000001937169FEF760FE99F83430B9F81C206768013BB7FBF2F703EA0707C719B9F81C300199CBEB03058D4228BF0D469D4228D0BBF1000F03D1626873689A420FD020
:405840000DF1400840463946002200F0E9FC404600F00DFD20B14FF6F9725546228154E01298039958442A460DF1400800F0A4FA40463946002200F0D3FC404600F0ACFC49
:4058800090B141E0099B089A9A1897420AD008A8FFF7B0FE002837D101230993039B08970B9301E001330993029B03995B1B019A029363684919521BAA44ED1865607368FF
:4058C00003919D42019207D91BB1194B93F880300BB9012104917560019A1AB101374FF0000B9CE7029B002B7FF46CAF08A8FFF781FE04995546002818BF002529B1304675
:4059000010A9FFF7DDFE00E05546059A954205D0B4F9083013B94FF6F87323810CA800F099FC10A800F096FC284615B0BDE8F08F30D3FF1F37B54FF0FF3469468DF807404E
:4059400000F0B8FC054670B100F0F6FD10F0010F09D0284600990DF10702012300F00EFF08B18DF807409DF807003EBDFFF7E2BF10B5002308E0C45C11F803C0013A01333E
:40598000644501D0012010BD002AF4D1104610BD70B5034602E003F8011C013A1C4622B103F003050133002DF5D193081ED04FF001354D4308E044F8105C44F80C5C44F875
:4059C000085C44F8045C043B032BA44604F11004F1DC1C46002603E04CF80650013B0436002BF9D102F003020CEB8404002302E0E154013A0133002AFAD170BD002310F89E
:405A000003C0CA5C624501D0012070470133002AF5D110467047002300E00133C25C002AFBD11846704710B500230BE0C45C11F803C0644501D0012010BDC4186478013389
:405A400014B1013A002AF1DC002010BD10B5002302E0C454013A013303EB000C0AB9002308E0CC5C002CF4D1F9E700210CF80310013A0133002AF8D110BDA0F16103192B90
:405A800098BF00F0DF00704701384018B0FBF1F07047C9B203E00BB918467047013003788B42F8D1704742780178431C42EA01205A789B7842EA002043EA002070478378F6
:405AC000C27803EB0222437803EB0222037803EB0220704703460A0A03F8011B42700A0C090E5A70997070470170090A417070474278037843EA022070470000094A0A4B9F
:405B0000C11C10B5146821F0030118680919814201D9002010BD11609A685868013220189A6010BDB4D3FF1F2082FF1F08B5FFF7E5FF00B9FEE708BDFFF7E0BF30B1044A7E
:405B40009368013B93600BB9024A1360704700BF2082FF1FB4D3FF1F014B5860196070472082FF1F38B50546FFF7E0FF002104462A46FFF70DFF204638BD000010B5084C4B
:405B8000A37C0BB1002010BD4FF40073238201F071F9A37C012043F00103A37410BD00BF30D3FF1F13B501A900F084FB044640B100F0C2FC032804D12046019900F0ACFDC9
:405BC00001E04FF0FF301CBDFFF7ECBF08B583680BB10020984708BD08B583680BB10120984708BD10B504680079A468A04710BD37B59DF81850046800790095E468A0478B
:405C00003EBD08B5036800799B69984708BD036810B55B69044623B10079984708B1002000E00120607110BD10B5437904460BB9FFF7EDFF607910BDF7B504461F460E4678
:405C40001546FFF7F1FF2046FFF7C6FF2A463146012320460097FFF7C5FF05462046FFF7B5FF2846FEBD10B504690919BDE81040FFF7E2BFF7B5044615461F460E46FFF79C
:405C8000D3FF2046FFF7A8FF0023009331462B463A462046FFF7ACFF05462046FFF796FF2846FEBD30B504699DF80C5009190395BDE83040FFF7DEBFF7B5044615461F462A
:405CC0000E46FFF7B1FF2046FFF786FF0123009331462B463A462046FFF78AFF05462046FFF774FF2846FEBD30B504699DF80C5009190395BDE83040FFF7DEBF73B504466B
:405D00000E461546FFF790FF2046FFF765FF00232A460093314601332046FFF769FF05462046FFF753FF002D14BF4FF0FF3000207CBD10B504690919BDE81040FFF7DEBF3E
:405D40002DE9F0411F46A1F57C73012B04460E469046056801D9FFF767FF2D692079314642463B46A847BDE8F08130B5054685B0FFF75AFF2B6828791C694FF47B7100223D
:405D800001ABA04708B1002001E0BDF80C0005B030BD70B506460D46FFF746FF336830791C694FF47B7100222B46A047002814BF4FF0FF30002070BD11F0030F70B584460A
:405DC0000B4632D110F0030F2FD195100446AC4611E053F8106CACF1040C44F8106C53F80C6C44F80C6C53F8086C44F8086C53F8046C44F8046C10341033BCF1030FE8D8EC
:405E0000AB081B0100EB030CCB1815F003050AD0284600215C584CF8014004310138F9D1AD00AC445B1902F0030213F0010F19462FD11CF0010F60462BD15410254610E0D8
:405E400031F8086C043D20F8086C31F8066C20F8066C31F8046C20F8046C31F8026C20F8026C08300831032DEAD8A108C9005B1814F003048C440AD0204600215D5A2CF8F6
:405E8000015002310138F9D16400A4441B1902F00102614610E013F8040C043A01F8040C13F8030C01F8030C13F8020C01F8020C13F8010C01F8010C18460433032A8C46F9
:405EC00001F10401E7DC32B10023C15C0CF8031001339342F9D170BD4A430A23012A02D05208013BFAD1D84050437047094B10B5D8689A68002308E0114652F8084B1CB905
:405F000001230B60486810BD01338342F4D3002010BD00BF30D3FF1F084B30B50022DC689B6808E05D6819460833854202D100230B6030BD0132A242F4D330BD30D3FF1FDF
:405F400001230373704700230373704710B1002282720260704718B1027B0AB1013A0273704770B506460D461446FFF7B5FFB0F5800F02D34FF0FF3070BD754304FB05F010
:405F800070BD0000014B83F88000704730D3FF1F38B5FFF7F3FD20B3124C4200E2600001FFF7E0FD238AA060E0685843FFF7DAFDA568E168228A002304E005EBC30460605C
:405FC000013380188B42F8D31020FFF7CBFD054C60612820FFF7C6FDA37CA06143F00203A37438BD30D3FF1F38B510220D4600210446FFF7CDFCFFF779FF08B9013038BDC6
:40600000A0604FF0FF33002065602360A07338BD38B5837A044643B10568FFF785FB2846FFF799FF2046FFF791FF002038BD08B50368827A03B19B6822B11BB1FFF7E8FF20
:40604000002008BD012008BD08B901307047FFF7EEBF000038B5104B9C69217B59B921606160A16004F110001422FFF791FC237B013323730DE0656A45B92820FFF75CFD54
:40608000606218B129462822FFF782FC646A002CE3D1204638BD00BF30D3FF1F38B50E4B5C69A17AE56839B920461022FFF770FC0123A372E5600CE045B91020FFF73CFD19
:4060C000E06018B129461022FFF762FCE468002CE7D1204638BD00BF30D3FF1F2DE9F74F06460020884691469B469DF830A09DF83470FFF7AFFF054608B9044610E0FFF76B
:40610000CDFF044660B180F80B900560AE604046214652463B46CDF800B0FFF70FF930B12046FFF713FF2846FFF715FF00242046BDE8FE8F2DE9FF410C461F4604A90023D9
:4061400041F8043D15469DF8286000F0B3F88046B8B1039B0BB11B789BB1404600F0ECF900280EDD14F0150F01D0032809D1039939B1404622462B4600970196FFF7AEFF08
:4061800000E0002004B0BDE8F08100002DE9F3410646884600240E4D404655F83410E700FFF72CFC10B9002C04DA0DE001340F2CF1D109E07D19A87929790090EA796B790B
:4061C0003046FFF7B7FF00E00020BDE8FC8100BF68820000FFF7DABF10B5437B04460BB1012010BD40682168A268A37BFFF7A1FD10B10120607310BD207310BD10B5437B5A
:40620000044663B9037B53B140682168A268A37BFFF78FFD08B1012363730023237310BD036870B5994204460D46164607D0037B0BB1FFF7E3FF00232560A673E37370BDD1
:4062400010B50446FFF7ECFF0123E373237310BDFFF7D4BF10B50446FFF7D0FFA068BDE81040FFF759BE01230373FFF7C7BF10B50446407B08B1012010BDE37B5BB9606829
:406280002168A268A37BFFF7EEFC10B10120607310BD0122E27310BD08B5436813B94FF0FF3008BD984708BD014BD86F704700BF30D3FF1F2DE9F0470F463A210646FFF712
:4062C000E8FB044610B93446174D27E00378C6EB000A5BB114F8013F43B162783A2A05D1A3F130085FFA88F8023401E04FF000080D4D2B6828791B6898478146FFF78BFBF7
:40630000504508D1484631465246FFF78CFB10B92B79434502D0ED6D002DEAD107B13C602846BDE8F08700BF4CD3FF1FF8B5174C064694F85B10E56D69B96022012720461B
:40634000FFF726FB84F85B70E5653046FFF7A4FF00280EDA18E045B96020FFF7EDFBE06518B129466022FFF713FBE46D002CE0D10AE0074B2660DA6F0132DA67032320719B
:4063800084F85B7084F85A302046F8BD4CD3FF1F30D3FF1FFFF7CABFA1F57C7CBCF1030F2DE9F04106460C4615461F460BD9FFF728FC002803DA4FF0FF30BDE8F0813046A9
:4063C00021462A463B46BDE8F041FFF7B9BC08B901387047FFF7E0BF28B1002240F2F2311346FFF7F4BF704710B590F8593004469BB1114B5B690EE09A7A5AB11A684AB19F
:406400009168A14206D1002199721960117B09B101391173DB68002BEED100221346204640F2F131FFF7B8FF002384F8593063712361636110BD00BF30D3FF1FFFF7D4BF77
:4064400070B50446FFF7DDFB20B92046BDE87040FFF7F4BF94F8593073B1104B5D6906E0AB7A1BB12B689B68A34213D0ED68002DF6D12046FFF794F80022134620464FF4BE
:406480007C71FFF789FF002384F8593063712361636170BD2846FFF7BBFDE7E730D3FF1F10B50021FFF706FF18B1BDE81040FFF7C7BF10BD70B590F859300546B3B10C4BD1
:4064C0005C6909E0A37A33B123689B68AB4202D12046FFF729F9E468002CF3D12846FFF75FF82846BDE87040FFF776BF70BD00BF30D3FF1F08B528B10021FFF7DBFE08B1F0
:40650000FFF7D8FF4FF0FF3008BD38B504460D46FFF777FB08B9013838BD2046FFF784FB204600F085FC2046FEF732FC08B184F8595094F8590038BD90F8593023B990F812
:406540005A1009B1FFF7E1BF1846704770B504460E461546FFF7F0FF10F0010F02D14FF0FF3070BD204631462A4600F04FF9B0F1FF3F0CBF4FF0FF30002070BD70B50C466A
:40658000154650B149B10021FFF794FE28B121462A46BDE87040FFF7D9BF4FF0FF3070BD1FB570B1002201A9FFF7E8FFB0F1FF3F07D00198BDF80C10BDF80E20FFF7D1FC4A
:4065C00000E0002005B000BD30B51346BAB1B0B10268857A0AB1946804B900247DB172B16CB1C27A12F0100204D14FF6FA730381104630BD1A46BDE83040FFF7B7B8002018
:4066000030BDFFF7E1BF00002DE9F04F8BB01C4605460992079100F03DFC00228246214628461346FEF716FBDDF81CC0804608B9013867E0354B1FFA8AFB1B684FEA1A4A2A
:406640004FF0100900260090CDF804900296CDF80CB0CDF810A09F68284621466246099BB847002846D02046FFF76AFC2046FFF7EFFDAA8B3146A068FFF78AF9414605F10C
:406680001800FDF721FF0890089920460122FFF7D7FDA768424638464B461D490096CDF804B0CDF808A0FEF745FF099A07F1200018494B460096CDF804B0CDF808A0FEF743
:4066C00039FF2046FFF7C4FDA0683146AA8BFFF75FF908E0089B2046F1180122FFF7A0FD2046FFF779FD95F8343001369E42F1DB002007E02846214642460123FEF7D8FA9E
:406700006FF001000BB0BDE8F08F00BF6C81FF1F108300001C83000070B58AB0054604AC0E4620462946FFF75FFC09AB009328462146324608ABFEF79FFDB8B10898FFF773
:406740006AF998B1099B2846009321460023089A01930293FDF738FF064638B928460899099A2346FFF750FF002801DA4FF0FF3604A8FFF76FFD30460AB070BD2DE9F04182
:406780008AB0064604AD0F462846314614469846FFF72AFC08AB0093304629463A4609ABFEF76AFD20B92846FFF754FD012429E0089B3046009329460023099A0193029393
:4067C000FDF702FF08B9012419E008F1FF38B8F1070F13D8DFE808F0040712091212120DC37A23700AE00E3000E01630FFF767F903E01230FFF77CF900042060002404A86B
:40680000FFF728FD20460AB0BDE8F0812DE9FF41044615460E4611B368462146FFF7E4FB15F0010525D0E56BA36BB5F1FF3F03F1010819D09D421CD916E0204669463A4683
:40684000FDF754FF00B901359DF80D3053B1304600210C22FFF79CF86846FFF7FBFC4FF0FF3012E0013701E0002502274745E4D9E563A36B7560336094F834306846338102
:40688000A48B7481FFF7E6FC002004B0BDE8F0812DE9F04F8FB08B469DF86010069207930991BDF86420BDF86C309DF8701005460B92BDF868800C930D91FFF7A2F90028A2
:4068C000C0F2DF81002385F85930FFF70FFB0446002800F0D481AC4B1B8A4345C0F0CF81B8F1000F00F0CB81079A06994FEAC803002A08BFFF220A93A44B0792002908BF23
:406900003F2102220C9F144606912A4684461D460C996B698F422E7C00D13FB9202E03D0DDF82CA0012708E0374604E0202E02D0DDF82CA001E04FF0000A41464FEA4A10A5
:4069400003920593CDF810C0FFF79EF8C7EB0B090999C0EB090999FBF1F070430A99FFF793F809994000C0EB090999FBF1F906FB09F00A99FFF788F8039A0890059BDDF87E
:4069800010C02CB940F6F471894508DD894601E0994504DA013C083DB4F1FF3FB8D164466046002115464246FEF7F2FF6FF01603204600F8033B08227549FFF747F804F11A
:4069C0000B004146FFF790F8099A04F10E0062733946FFF789F80223237404F111005146FFF782F8BBF5803F06D204F113001FFA8BF1FFF779F804E004F120005946FFF774
:406A000069F86FF00703637504F118000699FFF76BF804F11A000799FFF766F804F11C002969FFF757F8202E6FF07F031DD084F82430A93384F8263004F127005549FFF77A
:406A400049F8089B04F1160099B2FFF74DF8524904F12B000B22FEF7F9FF504B504904F136000C2E18BF194624E084F84030A93384F8423004F124000899FFF72BF804F17B
:406A80002C000221FFF726F804F130000121FFF72BF8062384F8323004F143003D49FFF719F83D4904F147000B22FEF7CFFF3D4904F152000822FEF7C9FF04F5FF7108462A
:406AC00007914AF65521FFF70FF80021284622460B46FFF72EF90028C0F29F80202E08D10621002328462246FFF723F90028C0F29480002142462046FEF74AFF089A022392
:406B0000520000932846394623460692FFF7ECF80028C0F282806FF00703237007330C2E6370A3700DD0202EE3700AD1201D6FF07041FEF7CFFF04F108006FF07041FEF70B
:406B4000C9FF0223284639462246FFF7F2F8002863DB089B2846D91922460223FFF7E9F800285ADB002142462046FEF711FF069AD119BAF1000F17D04FEA4A12012300933E
:406B80002846B2FBF8F213E030D3FF1F28830000B48300006745230140830000BD830000C6830000CF8300000123099A009328462346FFF799F800282FDB202E31D14246AA
:406BC00000212046FEF7E4FE20462F49FEF782FF04F5F2702D49FEF77DFF04F5F47009F1FF31FEF777FF032104F5F670FEF772FF07984AF65521FEF777FF01210023284653
:406C00002246FFF796F8002807DB0721002328462246FFF78EF8002803DA2046FFF77CF92DE02B6933B30D9B23B30021284622460B46FFF701F8E8B90C2E94F8C23102D083
:406C4000102E06D002E04FF0010B09E04FF00B0B06E0BBF5803F34BF4FF0040B4FF0060B5B4507D0002184F8C2B1284622460B46FFF744F82046FFF74FF9002001E04FF0EB
:406C8000FF300FB0BDE8F08F5252614172724161F0B58BB007AD044600210C222846FEF777FE204600F0C4F820462946FFF771F823690BB163690893089911B94FF0FF3023
:406CC00020E0BDF81E20BDF81C30BDF82460002000E001300C4D4FEAC00C05F1240757F83070B942F5D80CEB050090F82850408D009501900020039001300490204602969B
:406D0000FFF7C6FD0BB0F0BD2883000030B504468BB00D4600292FD0FEF773FF002802DA4FF0FF302AE0204600F082F8AA6807AB22B920461946FFF72CF802E007CA83E853
:406D40000700236923B16369089A9A4288BF08932978BDF81E2000916988BDF81C300191BDF8241020460291A9880391A97904910899FFF78DFD01E0FFF78AFF0BB030BD50
:406D80000378E92B01D101207047EB2B01D0002070478078902814BF00200120704708B500F5FF70FEF7A4FE4AF65523984214BF0020012008BD01EB001000F5E370FEF705
:406DC0007EBEF0B50D4685B01446064658B352B300210B46FEF730FF002824DB2046FFF7DEFF00B32046FFF7CBFF10B10024274616E02146FFF7DFFF074604F5E570FEF792
:406E00005EFE01A904463046FEF7C3FF5CB157B1E219FF23120AB2FBF3F2029B9A4202D81DB12C6001E04FF0FF37384605B0F0BD73B50446FEF799FF0646FFF757F80C4B2B
:406E400005461B8AB3420DD366B1204601A92A46FFF7B7FFB0F1FF3F04D02061019B6361002400E0FF242846FFF756F860B27CBD30D3FF1F80B500AF04484FF48051FEF7F8
:406E80006BFE0348FFF786FA80BD00BF2C82FF1F2084000080B485B000AF0023FB810023BB8100237B8101233B810123FB800023BB80FB895B089BB21A46BB895B011A4498
:406EC0007B89DB0213443B603A89FB885B011A44BB885B0213441B043A6813433B603B6818461437BD465DF8047B70474FF6FF7070470000014B1868704700BF2C92FF1FB3
:406F0000004870474084000000F096BD37B501220DF10701054600F0A7FD9DF80740FF2C14BF0A240724284601220DF1070100F09BFD9DF80700FF2803D1013CE4B2002C6F
:406F4000F1D13EBD37B50469857828460DF10701012200F089FD9DF807300BB1002003E0013CF2D14FF0FF303EBD37B54FF0FF3305460C468DF8073006E028460DF10701ED
:406F8000012200F08BFD013C002CF6DC3EBD000038B5094C2368032B02DD4FF0FF3509E0DDB2013323601420FEF7DCFD04EB850460608570284638BD2C92FF1F08B5034B0B
:406FC0004FF400711B68984708BD00BF7081FF1F4FEAD20CACEBD103CCF10F0C10B501336044002410F801CB013B4CEA0424F9D101F00703511A02228A40DC40013A04EAFC
:40700000020010BD7FB5130E85788DF80530130C01F03F018DF80630130A41F040018DF8073000238DF808208DF804101A4601A911F802C000215B00DBB283EA0C0E1EF043
:40704000800F18BF83F009030131082904D04FEA4C0C5FFA8CFCEEE70132052AE7D15B0043F001038DF809308678C4680122304603A900F0F9FC9DF80C30FF2B04D00CB95B
:40708000FF2009E0013CF1E7284601A9062200F005FD2846FFF73AFF04B070BDF7B5847806460F4620460121FFF75FFF204600F00DFC304609210022FFF7A4FF8DF8070098
:4070C00028BBF6680546012220460DF1060100F0CBFC9DF80630FE2B06D0FC2B04D00135ADB2B542EFD112E00DF1070520463946102200F0B9FC29462046012200F0B4FC5E
:4071000029462046012200F0AFFC002500E0FF25204600F0EFFB20460121FFF726FF2846FEBD00002DE9F04F9B46494B89B003EB800305925C684A02029103924FF00309F9
:40714000029AA578E678039B2846022E08BF13461E4600F0CFFB01212846FFF706FFBBF1010F0CBF4FF0110A4FF0120A284600F0ADFB204651463246FFF744FF002851D1B9
:40718000059F5E46A378E268B44604924FF000081E460FE0012230460DF11F01CDF804C000F062FC9DF81F20DDF804C0FE2A05D008F10108049B9845ECD333E028463946C3
:4071C0004FF40072664600F04FFC0222284607A900F04AFC9DF81C30384601939DF81D80FFF7ECFE4FF6FF729042019B0CD048EA0328404508D0BAF1120F13D120460C2179
:407200000022FFF7FFFE0DE0013E02D007F50077B8E7BAF1120F07D120460C213246FFF7F1FE01E04FF0FF36284600F063FB28460121FFF79AFE3EB1B9F1000F02D009F1F2
