:400000000080002011000000F9080000F908000080B500AF024A034B1B68136000F0A0FCBC760040FA46004010B5054C237833B9044B13B10448AFF300800123237010BD79
:400040009081FF1F00000000EC690000084B10B51BB108480849AFF300800848036803B910BD074B002BFBD0BDE81040184700BF00000000EC6900009481FF1F0881FF1F87
:400080000000000080B582B000AF62B601F008FF0346FB7100F030F800F0BCFA4FF4FA7000F0E6FEFB79184601F0FEFE00F0ECFB4FF47A7000F0DCFEF8E700BF80B582B094
:4000C00000AF7860786800F007F90837BD4680BD80B582B000AF01F05FFC0246044B1A60034B7B60034801F0D9FA0837BD4680BD1092FF1FE491FF1F80B500AF01F068F878
:4001000000F062FF01F046F81E4840F2232100F051F81D4840F2266100F04CF81B4840F2664100F047F81A4840F2665100F042F8184840F2666100F03DF8174840F666017E
:4001400000F038F815484FF4007100F033F8144840F2012100F02EF812484FF4C47100F029F811484FF4627100F024F80F484FF4916100F01FF801F0D9FD0D4801F038FE39
:4001800080BD00BF1092FF1F4092FF1F6092FF1FA892FF1F7892FF1F2092FF1F3092FF1F0092FF1F5092FF1F8892FF1F9892FF1FD100000080B485B000AF78600B467B8016
:4001C0007B687A889A807B6808229A717B6800221A600023FB7307E0FB7B7A681344FF22DA71FB7B0133FB737B689B79FA7B9A42F2D37B8840F2232293422CD1314B40F2B7
:4002000023221A602F4B00221A712E4B00225A712C4B08229A712B4B0122DA71294B2A4A9A600023FB730BE0FB7B284A13440022DA71FB7B244A0021D154FB7B0133FB7396
:40024000204B9B79FA7B9A42EED3204B0122DA711D4B01221A707B88B3F5916F12D10023FB7307E0FB7B1A4A13442422DA71FB7B0133FB73164B9B79FA7B9A42F2D3144B35
:4002800000225A737B8840F20122934215D10023FB7307E0FB7B0F4A13440022DA71FB7B0133FB730B4B9B79FA7B9A42F2D3094B01225A73074B97229A731437BD465DF89A
:4002C000047B7047E491FF1F7092FF1F1092FF1F9892FF1F0092FF1F80B584B000AF78600023FB607B689B88B3F5916F6FD0B3F5916F16DC40F20122934256D040F20122C3
:40030000934206DCB3F5C47F55D0B3F5007F46D063E0B3F5627F54D040F26642934220D05BE040F26662934227D040F26662934208DC40F26652934219D040F2266293423F
:4003400009D04AE040F2667293421CD040F6660293421ED041E02548796800F05DF8F8603EE02348796800F057F8F86038E02148796800F051F8F86032E01F48796800F004
:400380004BF8F8602CE01D48796800F045F8F86026E01B48796800F03FF8F86020E01948796800F039F8F8601AE01748796800F033F8F86014E01548796800F02DF8F860FB
:4003C0000EE01348796800F027F8F86008E01148796800F021F8F86002E00123FB6000BFFB6818461037BD4680BD00BF4092FF1F6092FF1FA892FF1FF091FF1F7892FF1FA3
:400400002092FF1F3092FF1F0092FF1F5092FF1F8892FF1F9892FF1F80B489B000AF7860396000237B773B689B88BB813B689B79BB733B681B68BB600023FB770CE0FB7F17
:40044000FA7F39680A44D27907F120010B4403F8112CFB7F0133FB77BB7BFA7F9A42EED30023FB7716E0FA7F7B7F13447A7FB97B4908C9B21144FA7F8A1A013A07F12001A9
:400480000A4412F8111C3A6813440A46DA71FB7F0133FB773B689B795B08DBB2FA7F9A42E1D304237B770023FB7716E0FA7F7B7F13447A7FB97B4908C9B21144FA7F8A1A7A
:4004C000013A07F120010A4412F8111C3A6813440A46DA71FB7F0133FB773B689B795B08DBB2FA7F9A42E1D33B689B8840F2012293423FD17B685B7B1B029AB27B689B7BA4
:400500009BB213439BB27B833B685B7B1B029AB23B689B7B9BB213439BB23B833A8B7B8B9A4225D03B8BB3F5CD7F21D33B689A887B689A803B689A797B689A713B681A68AF
:400540007B681A600023BB770BE0BB7FBA7F39680A44D1797A6813440A46DA71BB7F0133BB773B689B79BA7F9A42EED3012339E0002337E00023FB772EE0FB7F7A68134464
:40058000DA79FB7F39680B44DB799A4221D03B689A887B689A803B689A797B689A713B681A687B681A600023BB770BE0BB7FBA7F39680A44D1797A6813440A46DA71BB7F7B
:4005C0000133BB773B689B79BA7F9A42EED3012308E0FB7F0133FB773B689B79FA7F9A42CBD3002318462437BD465DF8047B704780B500AF00F034F901F0C2F940F6B830FD
:4006000000F036FCFEE700BF80B500AF00F078F880BD00BFB0B598B000AF01F019FA01F0AFF92D4801F05EF901F098FA2B4801F0F9FA03F0EBFE01F00BFE294B01221A702D
:4006400004F070F80346012B3FD1022003F0D8FE2448254903F0FCFF0246244B1A60234B1B68002B02D0224801F074FD214803F0D5FB0346102B09D01E4803F0FDFC0346D7
:40068000002B03D0164B00221A7021E007F12003194A1C4615460FCD0FC495E8070003C422800234130C237007F120031846134903F0CEFF02460D4B1A600C4B1B68002BBB
:4006C00003D1074B00221A7002E0094804F050F96037BD46B0BD00BFF105000009060000AC81FF1F006A00000C6A0000B8D2FF1F106A0000146A0000206A00003C6A0000F2
:400700002DE9F0439BB008AF4D4B1B78002B00F092800023A7F8463001F0C2FB034687F84530484B00221A8071E0464B1B88464A1B0113449B889946424B1B88424A1B0142
:4007400013441A68414B9B1A3E4A12883E4912010A44D27990463B4A12883B4912010A440132D2799446374A1288374912010A440232D2799646334A1288334912010A448D
:400780000332D27916462F4A12882F4912010A440432D27915462B4A12882B4912010A440532D2791446274A1288274912010A440632D2791046234A1288234912010A444C
:4007C0000732D27911463A1DCDF80080CDF804C0CDF808E00396049505940690079110461B494A4605F0F8FC0346A7F84630194B1968B7F946303A1D084611461A4604F067
:4008000000F9104B1B8801339AB20E4B1A800D4B1A88114B1B889A4287D3104804F0A8F8084B00221A800C4B00221A8097F84530184601F039FB4C37BD46BDE8F08300BF2D
:40084000AC81FF1FAE81FF1FB892FF1F002E9302406A0000B8D2FF1FB081FF1F106A000080B500AFFFF74CFF054B1B68184603F029FE044804F07CF8024804F04FF880BDB4
:40088000B8D2FF1F106A000080B5A4B002AF0023A7F88630144B1B6818461449132204F0B0F83A1D4FF0FF330093E023019310460F4901224FF6FF7305F08EFC0346A7F815
:4008C0008630094B1968B7F986303A1D084611461A4604F096F8FFF7C3FF064B00221A708837BD4680BD00BFB8D2FF1F706A0000846A0000AC81FF1F80B500AF05F02CFCFA
:4009000003461B680C2B00D1FEE7FEE780B584B000AF7860104B1A687B6813441A460F4BD31AB3F5805F09DC0B4B1B68FB600A4B1A687B681344084A136007E005F00CFC11
:4009400002460C2313604FF0FF33FB60FB6818461037BD4680BD00BF0C81FF1F48D3FF1F80B586B000AF224B7B61224B3B61204B7B6135E03B691B68FB603B695B68BB600A
:400980003B699B683B6000237B600CE0FB681A68BB681A60BB680433BB60FB680433FB607B6804337B607A683B689A42EED13B69DB683B6000237B6008E0BB6800221A60E3
:4009C000BB680433BB607B6804337B607A683B689A42F2D13B6910333B617B69013B7B617B69002BC6D105F0BDFBFFF74BFBFEE701000000186F000080B582B000AF174B76
:400A0000174A1A60174A174B1B6843F40073136000237B600FE07B68032B04D8124A7B6852F8233000E0114B11497A6841F822307B6801337B607B682F2BECD90D4B1B78E0
:400A4000DAB20D4B1A700D4B094A1A6000F032F90B4B00221A600837BD4680BD0CED00E00004FA0514ED00E000000000F90800000080FF1FBC7600400481FF1F08ED00E011
:400A80000081FF1F80B582B000AF78603960786800213A6805F097FB0837BD4680BD00BF80B584B000AFF860B9607A60F868B9687A6805F07DFB1037BD4680BD80B483B087
:400AC00000AF0346FB71FEE780B487B000AF7860396000233B6100237B6127E07B699B007A6813441B68BB60BB68FB73BB6823F0FF03BB6014E03B695B003A6813441B78A4
:400B00001A46BB68134419463B695B003A6813445B780B703B6901333B61FB7B013BFB73FB7B002BE7D17B6901337B617B69252BD4D91C37BD465DF8047B704780B582B02C
:400B400000AF334B00221A80324B58221A70324B45F6BF521A80314B18221A70304B06221A70304B52221A702F4B304A1278D2B21A702F4B4FF4E1621A802E4B41F251227D
:400B80001A800023FB7019237B6014E0FB785B00DAB2294B1B78DBB203F00103DBB21343DBB203F00303FB704FF4F07001F070F97B68013B7B607B68002B02D0FB78032BD1
:400BC000E4D17B68002B02D10320FFF777FF1B4B4FF480721A80194B07221A70184B00221A70184B48221A70144B00221A70164B00221A70154B02221A70154A144B1B78A7
:400C0000DBB243F00303DBB213700837BD4680BD804000408240004084400040864000400043004000420040A14600400F010049224200402042004025420040044000405D
:400C400006400040084000400940004001400040A243004080B483B000AF0F4B1B78FB710E4AFB7903F00703DBB213700C4AFB791B09DBB213700B4B40221A700A4B042234
:400C80001A700A4B20221A70094B44221A700C37BD465DF8047B7047CF0100496E5800406F5800401D510040C85A0040CB5A00407658004080B586B000AF72B6504A504B54
:400CC0001B78DBB243F00403DBB213700023FB7513E0FA7D13465B0013445B00494A13443B613B691A683B699B889BB210461946FFF7C8FEFB7D0133FB75FB7D092BE8D96D
:400D00000023FB751CE0FA7D13469B0013445B003D4A1344FB60FB681B68BB60FB685B687B60FB681A7A5B7A1B0213437B807B88B86879681A46FFF7B3FEFB7D0133FB756B
:400D4000FB7D002BDFD04FF090403049FFF7BCFE2F4B40F203121A802E4A2E4B1B78DBB243F00203DBB213702B4A2B4B1B78DBB243F00203DBB21370284A284B1B78DBB2DD
:400D800043F04003DBB21370254A254B1B78DBB243F01003DBB21370224823490A22FFF77FFE224822490822FFF77AFE214822490A22FFF775FE214821490822FFF770FEAC
:400DC000204821490822FFF76BFE204A1F4B1B78DBB243F00803DBB213701D4B01221A70FFF7ACFE1A4B81221A70FFF733FF19480A490E22FFF754FE1837BD4680BD00BF6D
:400E0000E8460040946A0000D06A0000980000484A5800400350014013500140A0430040C2430040F0510040B807004812510040C407004820510040CC07004832510040DD
:400E4000D807004862510040E00700482243004000480040B043004080B483B000AF0346FB7101BE0C37BD465DF8047B704700BF80B582B000AF786008E00C4B1B681846A1
:400E800001F006F87B68A3F500437B607B68B3F5004FF2D8064B1B687A6802FB03F3184600F0F6FF0837BD4680BD00BF1C81FF1F1481FF1F80B584B000AF03463960FB7108
:400EC0000F4B1B68FB60FB791F2B02D90020FFF7C3FFFB7903F01F0310339B00FA6813441B68BB60FB7903F01F0310339B00FA6813443A681A60BB6818461037BD4680BD47
:400F000008ED00E080B582B000AF03460A46FB711346BB71BB79072B02D90020FFF79CFFFB791F2B02D90020FFF796FFFB7903F01F0303F1604303F56443BA795201D2B23D
:400F40001A700837BD4680BD80B582B000AF0023FB710023BB7112E0BA7913465B0013449B00174A1344184600F012FB0346002B02D00123FB7105E0BB790133BB71BB7913
:400F8000072BE9D9FB79002B15D10023BB710FE0BB791B010B4A1344184600F083FA0346002B02D00123FB7105E0BB790133BB71BB790F2BECD9FB7918460837BD4680BDE0
:400FC000DC6A00003C6B000080B582B000AF4FF4F0537B600123FB700123BB7000F060FF03467B703D4A3D4B1B78DBB243F00103DBB213703A4A3A4B1B78DBB243F0010356
:40100000DBB213707B78184600F04EFF354A354B1B78DBB223F00103DBB2137002E07B68013B7B607B68002B06D02E4B1B78DBB203F00103002BF2D17B68002B49D02A4BF2
:401040004FF480321A6010202849FFF733FF10200721FFF757FF022000F0DAF80346002B1CD1012000F0F6F80346002B16D10A2003210022002300F023F90346002B0DD104
:40108000012000F087F90346002B07D1002000F0B7F90346002B01D10023BB70BB78002B17D1FFF751FF0346002B12D141F2010000F0DCF90346002B0BD10A4B00221A70D2
:4010C000084B1B78DBB203F00103002B01D10023FB70FB7818460837BD4680BDA6430040B643004010A0004080E100E08116000080B582B000AF4FF410737B600123FB703B
:4011000000F0CEFE0346BB701D4A1D4B1B78DBB243F00103DBB213701A4A1A4B1B78DBB243F00103DBB21370BB78184600F0BCFE154B41F201021A6000F04AF8134B4FF4FB
:4011400080321A60124A124B1B6843F00103136002E07B68013B7B607B68002B05D00C4B1B6803F00103002BF3D07B68002B01D00023FB70FB7818460837BD4680BD00BF63
:40118000A6430040B643004000A0004000E100E010A0004080B582B000AF0023FB710B4B1B78002B03D1FFF70FFF0346FB71FB79002B06D1054B01221A70FFF799FF0346AC
:4011C000FB71FB7918460837BD4680BDB281FF1F80B483B000AF0123FB710C4A0B4B1B78DBB243F00103DBB21370084B1B78DBB203F00103002B01D00023FB71FB79184661
:401200000C37BD465DF8047B704700BF04A0004080B485B000AF0346FB800223FB73FB881BB2002B0CDB0123FB73094AFB881380074B1B889BB2FA889A4201D10023FB736B
:40124000FB7B18461437BD465DF8047B704700BF16A0004080B485B000AF0346FB710123FB73FB79002B11D1144A144B5B78DBB223F01003DBB25370104B5B78DBB203F0EB
:401280001003002B13D10023FB7310E00B4A0B4B5B78DBB243F01003DBB25370074B5B78DBB203F01003002B01D00023FB73FB7B18461437BD465DF8047B704714A0004004
:4012C00090B484B000AF0446084611461A462346FB710346BB710B467B7113463B710223FB73FB79012B4CD9FB790F2B49D8BB79012B02D9BB79072B05D93B79002B40D156
:40130000BB79012B3DD17B79032B3AD87A79FB799A4236D87A79BB799A4232D80123FB731B4B5B78BB73BB7B23F00F03BB73BA7BFB791343BB73164ABB7B5370144B5B7873
:40134000DBB2BA7B9A421CD10023BB733B79002B01D00223BB73BB795B01DAB27B799B00DBB21343DAB2BB7B1343BB73084ABB7B1370074B1B78DBB2BA7B9A4201D1002337
:40138000FB73FB7B18461037BD4690BC704700BF14A0004080B485B000AF0346FB710123FB73FB79002B11D1144A144B1B78DBB223F01003DBB21370104B1B78DBB203F08A
:4013C0001003002B13D10023FB7310E00B4A0B4B1B78DBB243F01003DBB21370074B1B78DBB203F01003002B01D00023FB73FB7B18461437BD465DF8047B704714A0004083
:4014000080B485B000AF0346FB710123FB73FB79002B11D1144A144B1B78DBB223F00103DBB21370104B1B78DBB203F00103002B13D10023FB7310E00B4A0B4B1B78DBB2FB
:4014400043F00103DBB21370074B1B78DBB203F00103002B01D00023FB73FB7B18461437BD465DF8047B704714A0004080B485B000AF0346FB800123FB73094AFB881380B7
:40148000074B1B889BB2FA889A4201D10023FB73FB7B18461437BD465DF8047B704700BF04A0004080B485B000AF78600123FB737B681B785A01354B13441A467B685B68A9
:4014C00043F0801313607B681B785A012F4B13441B6803F07F127B685B6823F080139A424DD17B681B785A01284B134410337A6892681A607B681B785A01244B13441033B6
:401500001A687B689B689A4239D17B681B785A011E4B134414337A68D2681A607B681B785A011A4B134414331A687B68DB689A4225D17B681B785A01144B134418334FF090
:40154000FF321A607B681B785A01104B134418331B68B3F1FF3F12D17B681B785A010B4B13441C3300221A607B681B785A01074B13441C331B68002B01D10023FB73FB7BF1
:4015800018461437BD465DF8047B7047A0A0004080B485B000AF78600123FB737B681B781A011B4B13441A467B685B6843F4000343F0080313607B681B781A01144B13446C
:4015C0001B68144A1A407B685B6823F4000323F008039A4215D17B681B781A010C4B134404337A6892681A607B681B781A01084B134404331A687B689B689A4201D1002399
:40160000FB73FB7B18461437BD465DF8047B704720A00040F7007F0080B582B000AF0123BB80144B10225A700023FB711BE0124B1B889AB2BB8813409BB2002B0DD0FB7914
:401640005A010E4B13441B78DBB203F02003002B03D0FB79184600F0D9F8BB885B00BB80FB790133FB71FB790F2BE0D90837BD4680BD00BF00A0004008A00040A0A00040BE
:4016800080B500AF044B5B78DBB203F01003002B01D0FFF7C1FF80BD00A0004080B487B000AF786000233B750123FB749BE001237B750023FB758BE0504B9B78DAB27B7DAB
:4016C0001340DBB2002B79D10023FB607B681B79002B02D04FF40013FB607B685B79002B09D1FB7D1A01464B134404337A68126852051A600CE0FB6843F48013FB60FB7D6B
:401700001A013F4B134404337A681268D2001A607B689B79072B06D87B689B791B04FA681343FB6003E0FB6843F40023FB607B68DB79002B03D0FB6843F00403FB60002353
:40174000BB7517E0FB7D1A012D4B1344BA7D032A03D9BA7DC2F10B0202E0BA7DC2F1030279688868B97D415C13440A461A72BB7D0133BB757B689B79BA7D9A4202D2BB7D4F
:40178000072BDFD91F4B4FF480321A60FB7D1A011B4B13441A46FB6843F4000343F008031360FB7D1A01164B13441A4601231360154B4FF480321A600023FB747B7D5B0072
:4017C0007B75FB7C002B00D106E0FB7D0133FB75FB7D072B7FF670AFFB7C002B00D106E03B7D01333B753B7D022B7FF660AFFB7C18461C37BD465DF8047B704708A000404A
:4018000020A0004080E100E000E100E080B588B000AF0346FB71FB795A01314B13441B78DBB203F00103002B57D0FB795A012C4B13449B78DBB203F010031B11002B08D058
:40184000FB795A01264B134404331B68DB089BB207E0FB795A01224B134404331B685B0D9BB2BB81FB795A011D4B13449B78DBB203F00F03DBB2BB7300F08EF80346BB60FA
:401880000023FB7711E0FA7FFB795901144B0B44F97F0B441B7AD9B207F1200313440A4603F8112CFB7F0133FB77BB7BFA7F9A42E9D307F10803BB61B869FEF7FFFBFB79C2
:4018C0005A01074B1344FA795101054A0A441278D2B242F00102D2B21A702037BD4680BDA0A0004080B582B000AF786000F03CF8786800F009F8072000F018F800F028F800
:401900000837BD4680BD00BF80B485B000AF7860054B1B68FB60FB6850337A681A601437BD465DF8047B704708ED00E080B483B000AF0346FB71054AFB795B01DBB2137061
:401940000C37BD465DF8047B704700BF04E400E080B400AF034B10221A60BD465DF8047B704700BF00E100E080B400AF034B10221A60BD465DF8047B704700BF80E100E0B9
:4019800080B400AF034B10221A60BD465DF8047B704700BF80E200E080B400AF044B1B78044B1B681846BD465DF8047B704700BF046500404465004080B500AF002000F0F3
:4019C00057F8144A134B1B78DBB223F02003DBB21370104A0F4B1B78DBB223F00403DBB213700C4A0B4B1B78DBB243F00803DBB21370094A084B1B78DBB223F01803DBB2DD
:401A00001370054A044B1B78DBB243F01003DBB2137080BD41580040CF5A004080B400AF094A094B1B78DBB243F00203DBB21370064A064B1B78DBB243F00203DBB2137095
:401A4000BD465DF8047B7047A7430040B743004080B500AF054B1B78002B04D1FFF7ACFF024B01221A70FFF7D9FF80BDB381FF1F80B483B000AF0346FB71164B154A1278A0
:401A8000D2B2D2B222F00302D1B2FA7902F00302D2B20A43D2B2D2B21A70FB79012B0AD10D4B0E4A1278D2B21A700D4B0D4A1278D2B21A7009E0084B0B4A1278D2B21A7084
:401AC000074B0A4A1278D2B21A700C37BD465DF8047B70474158004032460040110100493346004015010049AF010049B701004980B582B000AF40F2E73000F05BF840F205
:401B0000E73000F073F800F0CBF90346FB710A4A094B1B78DBB243F01003DBB21370FB79184600F0C1F900F06FF8002000F026F80837BD4680BD00BF9464004080B400AF52
:401B4000054A054B1B78DBB263F07F03DBB21370BD465DF8047B70477264004080B500AF054B1B78002B04D1FFF7C2FF024B01221A70FFF7E3FF80BDB481FF1F80B483B0D6
:401B800000AF0346FB71044AFB7913700C37BD465DF8047B704700BF8464004080B400AF034B1B78DBB21846BD465DF8047B70476464004080B582B000AF78600348796865
:401BC00000F076F90837BD4680BD00BF2264004080B400AF044B1B6823F07F431846BD465DF8047B704700BF4264004080B582B000AF78600348796800F05AF90837BD46C8
:401C000080BD00BF0264004080B500AF01E0FFF7DFFFFFF7C3FF034603F00803002BF6D180BD00BF80B582B000AF786000F03CF8786800F009F8072000F018F800F028F862
:401C40000837BD4680BD00BF80B485B000AF7860054B1B68FB60FB6854337A681A601437BD465DF8047B704708ED00E080B483B000AF0346FB71054AFB795B01DBB213701A
:401C80000C37BD465DF8047B704700BF05E400E080B400AF034B20221A60BD465DF8047B704700BF00E100E080B400AF034B20221A60BD465DF8047B704700BF80E100E055
:401CC00080B582B000AF40F2E73000F05BF840F2E73000F071F800F0E3F80346FB710A4A094B1B78DBB243F01003DBB21370FB79184600F0D9F800F06DF8002000F026F8EC
:401D00000837BD4680BD00BF9B64004080B400AF054A054B1B78DBB263F07F03DBB21370BD465DF8047B70477864004080B500AF054B1B78002B04D1FFF7C2FF024B012207
:401D40001A70FFF7E3FF80BDB581FF1F80B483B000AF0346FB71044AFB7913700C37BD465DF8047B704700BF8B64004080B400AF034B1B78DBB21846BD465DF8047B704764
:401D80006B64004080B483B000AF7860034A7B6813600C37BD465DF8047B70472864004080B400AF034B1B681846BD465DF8047B704700BF4864004080B483B000AF7860AD
:401DC000034A7B6813600C37BD465DF8047B70470864004080B500AF01E0FFF7E1FFFFF7C5FF034603F00803002BF6D180BD00BF80B582B000AF786000F03CF8786800F057
:401E000009F8072000F018F800F028F80837BD4680BD00BF80B485B000AF7860054B1B68FB60FB684C337A681A601437BD465DF8047B704708ED00E080B483B000AF0346C3
:401E4000FB71054AFB795B01DBB213700C37BD465DF8047B704700BF03E400E080B400AF034B08221A60BD465DF8047B704700BF00E100E080B400AF034B08221A60BD46B5
:401E80005DF8047B704700BF80E100E0000000000230800803D000BF01380046FCD17047EFF3108072B6704780F31088704700BF80B485B000AF786039607B68FB603B680C
:401EC000DAB2FB681A70FB6801333A68120AD2B21A70FB6802333A68120CD2B21A701437BD465DF8047B7047F0B505468DB0002800F0248100210C22684601F0A1FF00212E
:401F00000C2203A801F09CFF0021142206A801F097FF002328460B9302F0CBF800286C46C0F20C81284602F0D7F82846694602F088F90028C0F20281824B019903F14802F2
:401F400018681E46884202D80C339342F8D1B388019F0B96B7FBF3F7384600F088FDBDF808100446C900784301F0E6FF202C4FEA4000B3680CD021301A461446D218D11AE4
:401F80008142FAD9241A5A1E22421DD0E4181BE01C4601301A460127D118824202D801370A46F9E70198B188C31A9A1AB2FBF1F0BDF808104001C90001F0BEFFB3684000B2
:401FC0005F433F1AADF81070019B47F6A7721B1B934201D801220EE0B3F5803F01D2042209E0B3F5800F01D2062204E0564A934294BF0B220C228DF82020544A019E0693BD
:40200000079402F1500017681146B74202D808328242F8D1621E0879D2184B79ADF8000000FB03F1B4FBF1FC01FB1C4EADF824C0B2FBF1FC01FB1C21BEFBF3FEB1FBF3F177
:402040008DF821E08DF82610B4FBF3FEB2FBF3F103FB1E4403FB1122013401328DF822408DF82720ADF828C0ADF8023002F08CF90446002862D0364B00271A8A002101F065
:40208000DFFE84F8BE719DF8212004F5DE7384F8BF21BDF824009DF8221000F4407001F03F01033341EA90015970BDF824105A1C5170531C9DF820205E1C5A709DF8262069
:4020C000731C7270BDF828109DF8272001F4407102F03F0242EA91025A70581CBDF8283043700799023001F04DFF06F10800069901F048FF04F5FF704AF6552101F04CFFD1
:402100002846394622463B4602F050F8B84214BF4FF0FF363E46204602F04CF976B94FF40073ADF80E300B9B0CA99B88284621F8243DCDF814D002F037FF01E04FF0FF30DF
:402140000DB0F0BD3C6C0000FF03FB00846C0000BCD2FF1F10B5002102F0EAFABDE81040FFF7C2BE0346002007E011F810C0BCF1FF0F04D003F800C001309042F5DB704790
:4021800000220346104607E013F802C00232BCF1FF0F03D00130C0B28842F5DB704710B54FF0000C002B07DD11F8014B0CF1010C04700024447004E003D04FF0FF3404708D
:4021C0004470013A02D00230013BEBE7604610BDA0F161039BB2192B98BF00F0DF0070472DE9F84504460D4617460026A319AA195878A35D92F801A0AA5D43EA002042EA9B
:402200000A2AFFF7E5FF80465046FFF7E1FF804502D00120BDE8F8850236013FE6D13846BDE8F88500230146184610F0010F4FEA5002C85C14BF42F08002D2B201331018C7
:402240000B2BC0B2F1D1704783685B1883607047014A024B1A607047D46C00002081FF1F2DE9FF411F1E04460D4626DB1830694601F0F4F829466A46204601F077F98046CC
:40228000684601F0F5F8029BBB42F3DD98F8006006F03F066FF01A0388F80030284602F09DF829466A46204601F060F98046684601F0DEF8013E6F46ECD1BDE8FF8110B537
:4022C0000B46044611B901F0FEFD03465A1E1946A41804E0621AD25C202A02D1013B002BF8D1184610BD08B50B4611B901F0EBFD03460C330D2293FBF2F008BD2DE9F047C1
:4023000004460D461F469DF8208016461AB9084601F0D9FD064631462846FFF7E4FF002182462022204601F08BFDFBB25745237004BF43F0400323700F23E37284F80D80D6
:402340001EB9284601F0BFFD06460D23013F5F43F61BE91905223346601CFFF720FFC719E9190622731F04F10E00FFF718FF3F18E91904F11C000222A6F10B03BDE8F0470E
:40238000FFF70DBF2DE9F04F95B090469DF87C2081460591404619460692FFF790FF074639464046FFF79FFF1E9A064610A909F1180001F053F80D2397FBF3F203FB127340
:4023C00007934FF0FF33354604934FF0000B9A4610AB1A4648460599039301F0C7F8039B044600286DD00278002A69D0E52A03D1184601F03DF8EBE7554527D0002D48D0D0
:40240000002300933A4608A841462B46FFF776FF079AE2B9227806F140039A4217DD20460378002B4CD0C37A10AC0F2B08D1204601F01EF848460599224601F097F8EFE7E8
:402440002046AA4601F014F83546C1E70DB322789DF820309A420ED1601C0DF121010522FFF7BEFE38B904F10E000DF12E010922FFF7B6FE00E00120B542637B03D19B46F6
:40248000129B049301E05B4513D190B96C1EAA4611E02046FFF7C6FE58450BD1069AE37A02EA0303934205D1209B53B1049A1A6007E0AA46344610A800F0DAFF254687E70A
:4024C0000024204615B0BDE8F08F2DE9F8451646002204460D4600F0F1FF00285AD0204620210B2201F0ACFC0127334603E00A22013793FBF2F3092BF9DC4FF0000A19E0B6
:40250000287810F0800F02D04FF05F0803E001F00CFD5FFA80F80135B8F1000F0ED0B8F12E0F0BD0404600F0B5FA18B104F8018B0AF1010AC7F107039A45E1DB7E23A04659
:4025400008F8013BE3190A2196FBF1F201FB1261303103F80119A3421646F4D100266C1C20462E2101F0EDFC054608B10126F6E786B1B8440646605D01F0D7FCC7B24FB1DB
:40258000384600F087FA10B108F8017B01360135022EF0DDBDE8F8852DE9F04F038A89B004460D46904687692BB907F118002146626900F053FF38464146224600F0D6FF4B
:4025C0000646204600F054FF002E00F0C3803378002B00F0BF80E52BEDD0F27A082AEAD00F2A0CD068693146AA6900F06DFA3046294600F0F9FA238A01332382A8E003F0CB
:402600003F0B96F80D904FF0000A5E4610E038464146224600F0AAFF10B94FF0010A09E0437B20464B4518BF4FF0010A00F020FF013EECD141462246384600F097FFFFF77D
:40264000F1FDBAF1000FB6D14845B4D16E69CDF818B0002E59D00BF1FF39D346BA462F4620464FF0FF31FFF7EFFD22464146504600F07CFFB969431C05460791184605210D
:402680000193FFF77DFD05F10E0102460491084606210292FFF774FD1C35844602212846CDF80CC00595FFF76BFD029ADDF80CC0079962445A4412189142019B09DC20468A
:4026C000C9F100013D46FFF7BFFD57464FF0010A1DE0194630460522FFF744FD0499054606223018FFF73EFD4519701905990222FFF738FD28183618B9F1000F03D0834495
:4027000009F1FF39ACE73D4657464FF0000A20460699FFF799FD38464146224600F026FF0746BAF1000F05D068693946AA6900F0CBF902E00EB186F800A03846294600F0C9
:4027400053FA238A2046013323820121FFF77CFD002001E04FF0FF3009B0BDE8F08F2DE9F04FA3B00C469DF8B41006930791BDF8BC30BDF8C0100546104616460893099167
:4027800001F0A1FBFF2800F2298130460021FFF796FD00220490B35C3B2B00F01F8104D82B3B012B00F21F8118E15B2B00F016815D2B00F013813D2B40F015810EE100219E
:4027C00020220BA801F03CFB1FA831463A46FFF77CFE059813A9069A00F040FE2846214613AA00F0C3FE8246002844D00378002B41D04FF000081AF808307E2B07D008F15F
:402800000108B8F1080F32D0002BF4D12FE0C8F1070B50461FA9CBF1070201F001FB30BB0AF1080021A9032201F0FAFA0346F0B91AF808207E2A1AD108F10108C244024622
:402840001AF80310013330390A209B4500FB0212F6D1D21BFF2A0AD8D308093802F0070210FA02F20BA9C85C42EA0000C85413A800F0FEFDB2E7002202F007034FF00108E4
:4028800008FA03F822A901EBD20313F85C3C18EA030802D1D21910D404E00132B2F5807FEAD10AE01FA83146FFF70FFE05981BA9069A00F0D3FDB24606E0B7F5806F00F070
:4028C0008D8007F580777AE7284621461BAA00F04DFE0746002836D1069B13B92B8E002B7DD121461B9A0023284600F0C1FB214602460023284600F06DFC0646204601F0F2
:40290000F0FE002E6BD00021AA8BA06801F098FA3146059800F0B8F895F834B000260BF1FF373F1808E039462046012201F0B6FE204601F08FFE013F0136C6EB0B03B3F138
:40294000FF3FF0D1A7683B7823B1E52B02D04FF000080CE0B8F1000F05D10DF15C0C1BAB0FCB8CE80F00C84505D008F101081BA800F07EFDA8E71FA8FFF754FC5646824684
:402980000DF15C0828462146424600F0EFFD074628B34B463146049ACDF800A0FFF7AEFC204601F01BFD404600F062FDB9F10109E6D121464246284600F0D8FD2E9B08996E
:4029C0000093099B019102931FA92C9A079B074601F030F8204601F001FD00E00027384623B0BDE8F08F0499013291427FF4D3AE05F1180330460593FFF775FC0027814607
:402A0000DDE60C2802D0102805D102E001EB510070474800704788007047036840689B685B6AB0FBF3F0704710B5C46C436CE4B199421AD3E318994217D2013B99420CBFE9
:402A40004FF0FF31013172B190F836300C2B02D0102B05D102E00905090D03E089B201E021F070411160012010BD002010BD40F6F473984201D80C2070474FF6F4739842BE
:402A800094BF102020207047027F8368023902FB01307047431EDBB21F2B13D92F2811D007D826280ED002D8222809D10AE02A3804E03A2804D33F2804D95B38022801D967
:402AC0000120704700207047034638B30B2A01DD0B2200E0013A00201CE0082809D191F808C0BCF1200F0DD04FF02E0C03F801CB08E038B991F800C0BCF1050F02D1ACF1D5
:402B0000200C04E011F800C0BCF1200F01D003F801CB01309042E0DB00221A7070472DE9F04788B005AE04460D463046114600229A469DF84490BDF84C80BDF8507000F034
:402B4000BDFC08B1002413E020462946524600F0AEFD044660B1129B31460093109A4B46CDF80480029700F065FF284601F036FC204608B0BDE8F08710B59DF80C40039439
:402B8000BDE8104000F078BD2DE9F04F144E87B0109DDDF848809DF84440376800950194CDF8088005937F68934682468946B84732680C4BDDF814C09A420DD060B95046A4
:402BC00049465A46634610951194CDF8488007B0BDE8F04FFFF7D0BF07B0BDE8F08F00BF2081FF1FE46C000070B5C37A04460B7010300D4601F0D4F9064604F10E0001F0A5
:402C0000CFF940EA0640686004F1120001F0C8F90004A86004F1180001F0C2F9064604F1160001F0BDF940EA0640E86004F11C0001F09DF9286170BD2DE9F845038A0446E8
:402C40000E46924687692BB907F118002146626900F004FC38465146224600F087FC0546204600F005FCD5B12B78C3B1E52BF1D095F80B80B8F10F0FECD018F00808E9D1B5
:402C800070692946B269FFF71FFF28463146FFF7ABFF238A404601332382BDE8F8854FF0FF30BDE8F885022201F0F8BC2DE9F74F04460D461E461746002A00F09B8090F81A
:402CC00036001146FFF79DFEB4F81EA0A36A20FA0AFA9A45814680F08D80638E04F118089A44284651464246FFF7DDFF284601F0FCFC6B7B002B7DD1A38B013B09EA03099C
:402D0000AB681FFA89F909EB030B26B9226C974203D2276401E07A1C226494F83620102A0AD0202A11D1584601F021F931460746584601F027F94EE0584601F031F9B1B2B8
:402D40000746584601F028F945E02846019301F045FB019B17F0010F19F803701CD007F00F0242EA061209F80320A38B013B994502D00BF1010309E028460AF10101424675
:402D8000FFF791FF284601F0B0FCAB681A78120142EA171732091DE009F80360A38B013B994502D00BF1010309E028460AF101014246FFF778FF284601F097FCAB681A78DA
:402DC00002F00F0147EA0127310A22F00F0201F00F010A431A70284601F000FBE36BB3F1FF3F09D00FB10133E3632EB1E36B013BE36301E0012000E00020BDE8FE8F6FF063
:402E00007043FFF753BF70B5C36C04460E4693B1002506E0AA1820463146531CFFF746FF0135E36C626C013B9D42F3D320463146AA18FFF7E4FF00236364E364A3642365E1
:402E400070BD70B506460D461C460AB1FFF72EFF304629462246BDE87040FFF7D0BF2DE9F04790F8366005460C46304611469146FFF7C7FDB5F81E80AB6A20FA08F898453D
:402E8000824602D30020BDE8F0876B8E05F118079844204641463A46FFF705FF204601F024FC18B14FF0FF30BDE8F087AA8BA168013A0AEA020A1FFA8AFA92450AEB010338
:402EC0001AF8015001D0013309E0204608F101013A46FFF7E8FE204601F007FCA36818780C2E45EA002009D0202E0FD15D7840EA05409D7840EA0560BDE8F08719F0010F22
:402F000002D00009BDE8F0870005000DBDE8F0872DE9F34190F83630144603FB02F7828B8846D200511E0F40D71B0546B7FBF3F7002618E00E4B93F87C30022B05D1284680
:402F4000214601AAFFF770FD28B9284641462246FFF785FF0190019B0134A34205D10136B6B2013F1C46002FE4DC3046BDE8FC81BCD2FF1F2DE9F34105460E461446984672
:402F80001F681CE0114B93F87C30022B05D12846214601AAFFF748FD28B9284631462246FFF75DFF0190737B0BB100240BE0AA6B019B0132934204D81BB1013F1C46002F41
:402FC000E0D1C8F800702046BDE8FC81BCD2FF1F73B504680E4623681BB9FFF71EFD013039E0FFF71AFD236998423CBF4FF0FF3323612369B3F1FF3F04D122680133236132
:403000006261E3832169E28B451A954234BF2B4613463BB16069C918C018D21A60612161E283ED1A0DB9284615E002AB43F8045D31466269A068FFF79DFF6061019B21693F
:403040000246C91A4D19256123B9A0683146FFF75FFFE08301987CBD13B502AC44F8043D2346FFF787FF019B002B18BF00201CBD2DE9F0410746884615461E460024384623
:4030800041462A460123FFF7E7FF30B1BA6B0134944201D80546F2E7002406B134602846BDE8F0812DE9F84504460E4615461F46002B36D01C4B93F87C30022B31D190F8E1
:4030C000368011464046FFF79CFCB4F81CA00AF1FF3A2AEA000A4FEACA0ABAFBF8FAAA44A8460EE0204631464246FFF7B8FE50B9636C0BB9C4F84480A36C08F10108013305
:40310000A364D045EED9A36C5BB127653B685A6922B1204631462B46FFF7C8FDE36C0133E364BDE8F88500BFBCD2FF1F2DE9F8459846274B054693F87C300F46022B164669
:40314000846B19D1036D984503D0836C0BB1FFF75AFEB8F1000F0FD02B6D43450CD1EB6CAA6C9A4204D96C6C1C190133EB642CE028463946FFF747FE012E04F1010A01D9D6
:40318000564505D92E6C012E01D9564500D902263446284639462246FFF761FE50B101345445F6D902240DE0284639462246FFF756FE30B92846394622464346FFF772FFB5
:4031C00003E00134B442EFD300242046BDE8F885BCD2FF1FF8B507460E461546FFF7A6FF044628B1384631462A462346FFF729FE2046F8BDB2F1FF3F73B504460D4614D0B0
:40320000561A013611D001F061FA084B00211A8AA06800F015FE022300936068A3682946324600F0B9FF0023E3737CBDBCD2FF1F2DE9F84F984690F8363004460C2B0D4622
:4032400016465AD04FF0FF3AD1463CE094F836003146FFF7D6FBB4F81CB0678E0BF1FF3B10EA0B0BE38B1DD1D840013F3F1802222846394601F012FAA38BAA689B0852F824
:403280000B1079B9013B0BF1040BF8D13BE0494628465246FFF7AEFFB946BB46284601F0A0F8DA462946324601232046FFF7D4FE29460746324620460023FFF7F7FC2FB188
:4032C00008F1FF383E46B8F1000FBFD1284649465246FFF78FFF13E02946324601232046FFF7BAFE29460746324620460023FFF7DDFC2FB108F1FF383E46B8F1000FEBD113
:403300004046BDE8F88F0AF1010B5F45BFD1C5E72DE9F845044601F037F8054608B9044696E0204600F079FF4B4E338A834208D338B1002120462A460B4600F0ECFE002874
:4033400004DA284601F036F8002481E005F5FF7000F026FE4AF65523984275D105F10B0000F01EFE10F47E4F07466DD0338A83426AD32B7C022B67D16E7B002E64D0002169
:403380003C2204F1180000F05BFD05F1130000F007FE804620B905F1200000F0E8FD804605F1160000F0FCFD824680B905F1280000F0F6FD10F08F0F46D105F1240000F056
:4033C000D6FD824605F12C0000F0D1FDE062022384F83530C4F828A0C4F8188084F8346005F10E0000F0DCFD608605F1110000F0D7FD638E94F83520208602FB0A3A7B0967
:403400009BB2B0FBF3F05044A7832062092301229A40BA4201D1E38302E00133102BF6D17743C0EB0800B0FBF6F0A0636762FFF71EFB4FF0FF33202884F8360018BFC4F825
:403440002CA0E363012400E00024284600F0B2FF2046BDE8F88500BFBCD2FF1F00238B60837F202B01D102B942694A600A60704783680133836070472DE9F0410C4620211E
:4034800005461F469DF818604FF0000800F0D8FC10E014F8080036B9E52804D1B8F1000F01D1E03802E000F040FDC0B205F8080008F10108B845ECDBBDE8F0812DE9F74519
:4034C00006460D4608462849002A14BF92464FF0FF3A00F0EBFC804650B930462946022200F0C2FEB01C2021092200F0A9FC37E000274FF0FF3415F80780B8F1000F01D028
:40350000574505D1B4F1FF3F08BF3C4664B925E04046FFF7BFFA08B3B8F12E0F08BF3C4601370D2FE7D119E0082C17DC3F1B042F14DC30462946082223464FF00008CDF85F
:403540000080FFF799FF0123611C009306F10800691803227B1EFFF78FFF01E04FF001084046BDE8FE8500BFF46C00002DE9F74FD2F808B0436A4FEA4B18B8FBF3F8D36851
:40358000054698450E461446D2F8009001D20023D360B5F81EA0E368AAF1050A0BB9D4F804902BFA0AF7B9F1000F17D095F83420B8EB0303019206D04A4628463146FFF70A
:4035C0004BFD814640B3494605F11800FFF75CFA019B591E01EA0707C11906E02B8E43FA0AF39F4218D2E96A79183046C4F80090C4F80C80012201F051F8304601F075F837
:4036000050B9013000FA0AFAB3680AF1FF3A0AEA0B0B03EB4B1000E00020BDE8FE8F2DE9FF4107460E4601A811461A460A9D9DF82C40FFF743FFC8B9384631462A46FFF76B
:4036400095FF8046A0B1037883B101A90B2200F0E7FB38B998F80B3004EA0302A24201D1082B05D12846FFF703FFE5E74FF00008404604B0BDE8F0812DE9F04587B002AFDD
:4036800004460E46154698469DF83CA039460E9A1830FFF7E3FE204631462A4643460097CDF804A0FFF7BBFF07B0BDE8F0852DE9F04500F1180785B005460C4638466946CB
:4036C0009246FFF7CBFE284621466A46FFF74EFF06466846E846FFF7CBFE002E37D1BAF1000F02D12B8E002B35D12146009A00232846FFF7BDFC2146024600232846FFF760
:4037000069FD8046204600F0ECFFB8F1000F22D0AA8B0021A06800F093FB38464146FFF7B3F995F8347000257E1E361808E031462046012200F0B2FF204600F08BFF013E07
:4037400001357B1BB3F1FF3FF1D1A66803E033780BB1E52BB7D1304605B0BDE8F08538B504461A3000F01CFC054604F1140000F017FC45EA004038BD2DE9F0451D4685B07D
:4037800007460E462A6010465C21904600F0D9FB4FF0000A0446A04508D108F10108C5F8008040465C2100F0CCFB044694B1C8EB0403002B0EDD10220192103A02923846A7
:4037C00031464246CDF800A0FFF7DEF970B1FFF7C6FF824628685C2100F0B3FBA04604460028D8D10C9B0130C3F800A005B0BDE8F085F8B505460C461E461746DAB16FF051
:403800001A031370084600F0E9FD16B94FF47A7608E007F11C0000F0AAFB6B6A5E1E3618B6FBF3F63846FFF79AFF2146024633462846FFF7FDFC607BF8BD00002DE9F04F81
:40384000D1F8008093B0D8F808700BAD044608930E464FF0FF333946284609920F939DF870A000F0FFFD10AB009338462946224611ABFFF781FFD0B1F27A109B07920FAA98
:4038800000930292002338462946119A0193FFF77BF9044680B1C37A13F0100F07D10D9BDDF82CB0C3EB00094FEA691906E0284600F00EFF0125A3E083468146099B002B52
:4038C0003CD0002C33D0524B5D6912E02B687BB1AA7A6AB19A8B4A450AD19A695A4507D19B68BB4204D14FF6F772328100257EE0ED68002DEAD10DF12C0C61463846224678
:403900000123CDF818C0FFF774FFDDF818C018B14FF0FF3333816AE03E4B1B68DC6824B138466146109A0F9BA0472C4606E0BAF1000F03D1089A002A44D065E0089BEBB1A9
:40394000CCB1E37A13F0010F0BD0079A12F0150F07D04FF6FA733381BAF1000F01D1012500E000252046FFF7FAFE074604F11C0000F0FDFA29E0BAF1000F45D0BAF1010F98
:4039800001D000251BE0ECB901F0D2FB214B20221B68019282B2000C03920490009402949D6838460BA9119A109BA84750B10D9ADDF82CB0C2EB00094FEA6919254628463D
:4039C0002F4602E00125002007464FF0FF33C8F81030C8F818B0A8F81C90079AC8F8040012F0010308BF1846C8F800707060B6F908300BA835EA230528BF012500F068FEC4
:403A0000284613B0BDE8F08F01255046DCE700BFBCD2FF1F2081FF1F70B505460C461A3089B200F0B9FA05F11400210CBDE8704000F0B2BA2DE9F0470446BDF824700D4683
:403A40009146002120229A46BDF82860DDF8208000F0F6F90B222046294600F005FC04F10E00394684F80BA000F096FA04F11000314600F091FA04F11600394600F08CFA88
:403A800004F11800314600F087FA20464946FFF7C3FF04F11C004146BDE8F04700F072BA704707B5426803460AB910460AE081680020009048681968DB6800F04BFB0038F0
:403AC00018BF01200EBD00002DE9F047046805460F46A668FFF77CFA81468246002841D0D4F80080B8F1000F1BD14246304639462B46FFF71BFB0246D8B11C4B6061C4F8C9
:403B0000108093F87C302060022B07D030463946FFF775F910B10120BDE8F087B9F1010A20D03046394662692B46FFF7FFFA804628B94FF6FE732B810130BDE8F0870B4B72
:403B400093F87C30022B05D03046394662694346FFF777F92369C4F8148001332361BAF1010ADDE70020BDE8F08700BFBCD2FF1F2DE9F041836804460D4608460122A1695E
:403B80009E8B00F08BFD2846B4F81C80AF6800F0ACFDF8B9013E06EA4816B6B2BE1906F11C00616800F0EEF921683046FFF734FF01F0BEFA0446A1B206F1160000F0ECF97E
:403BC00006F11800210C00F0E7F92846BDE8F04100F087BDBDE8F0817FB50668B0F90830B568C3B9C37A13F0110F14D02946684600F038FC30466946FFF7BAFF064B6C46B3
:403C000093F87C30022B03D128466946FFF7FBF8684600F05DFD7FBDBCD2FF1F03682DE9F04F9F68038995B001339BB2012B04460E46059201D90025CEE0394610AD0CA84F
:403C400000F010FC3946284600F00CFC039626680023D6F808909A4609F118010791D9F82420059906924FF0FF32099308920A950291049320460CA9FFF726FF38B108A89F
:403C8000FFF70FFF5546002818BF00258FE03269069901324A43B9F81CB063680BF1FF3BD21A0BEA030B029B0798934228BF134601937169FEF7E8FE99F83430B9F81C20EF
:403CC0006768013BB7FBF2F703EA0707C719B9F81C300199CBEB03058D4228BF0D469D4228D0BBF1000F03D1626873689A420FD00DF1400840463946002200F0CFFC404671
:403D000000F0F3FC20B14FF6F9725546228154E01298039958442A460DF1400800F0A4FA40463946002200F0B9FC404600F092FC90B141E0099B089A9A1897420AD008A8FE
:403D4000FFF7AFFE002837D101230993039B08970B9301E001330993029B03995B1B019A029363684919521BAA44ED186560736803919D42019207D91BB1194B93F87C30CB
:403D80000BB9012104917560019A1AB101374FF0000B9CE7029B002B7FF46CAF08A8FFF780FE04995546002818BF002529B1304610A9FFF7DDFE00E05546059A954205D0D2
:403DC000B4F9083013B94FF6F87323810CA800F07FFC10A800F07CFC284615B0BDE8F08FBCD2FF1F37B54FF0FF3469468DF8074000F09EFC054670B100F0DCFD10F0010FD4
:403E000009D0284600990DF10702012300F0B6FE08B18DF807409DF807003EBDFFF7E2BF10B5002308E0C45C11F803C0013A0133644501D0012010BD002AF4D1104610BD7B
:403E400070B5034602E003F8011C013A1C4622B103F003050133002DF5D193081ED04FF001354D4308E044F8105C44F80C5C44F8085C44F8045C043B032BA44604F11004EA
:403E8000F1DC1C46002603E04CF80650013B0436002BF9D102F003020CEB8404002302E0E154013A0133002AFAD170BD002310F803C0CA5C624501D0012070470133002AC2
:403EC000F5D110467047002300E00133C25C002AFBD11846704710B500230BE0C45C11F803C0644501D0012010BDC4186478013314B1013A002AF1DC002010BD10B50023B0
:403F000002E0C454013A013303EB000C0AB9002308E0CC5C002CF4D1F9E700210CF80310013A0133002AF8D110BDA0F16103192B98BF00F0DF00704701384018B0FBF1F0BD
:403F40007047C9B203E00BB918467047013003788B42F8D1704742780178431C42EA01205A789B7842EA002043EA002070478378C27803EB0222437803EB0222037803EBC9
:403F80000220704703460A0A03F8011B42700A0C090E5A70997070470170090A417070474278037843EA022070470000094A0A4BC11C10B5146821F00301186809198142E4
:403FC00001D9002010BD11609A685868013220189A6010BD3CD3FF1FB881FF1F08B5FFF7E5FF00B9FEE708BDFFF7E0BF30B1044A9368013B93600BB9024A1360704700BF30
:40400000B881FF1F3CD3FF1F014B586019607047B881FF1F38B50546FFF7E0FF002104462A46FFF70DFF204638BD000010B5084CA37C0BB1002010BD4FF40073238201F0FF
:4040400067F8A37C012043F00103A37410BD00BFBCD2FF1F13B501A900F06AFB044640B100F0A8FC032804D12046019900F054FD01E04FF0FF301CBDFFF7ECBF08B58368D3
:404080000BB10020984708BD08B583680BB10120984708BD10B504680079A468A04710BD37B59DF81850046800790095E468A0473EBD08B5036800799B69984708BD0368A8
:4040C00010B55B69044623B10079984708B1002000E00120607110BD10B5437904460BB9FFF7EDFF607910BDF7B504461F460E461546FFF7F1FF2046FFF7C6FF2A4631463A
:40410000012320460097FFF7C5FF05462046FFF7B5FF2846FEBD10B504690919BDE81040FFF7E2BFF7B5044615461F460E46FFF7D3FF2046FFF7A8FF0023009331462B46CD
:404140003A462046FFF7ACFF05462046FFF796FF2846FEBD30B504699DF80C5009190395BDE83040FFF7DEBFF7B5044615461F460E46FFF7B1FF2046FFF786FF0123009366
:4041800031462B463A462046FFF78AFF05462046FFF774FF2846FEBD30B504699DF80C5009190395BDE83040FFF7DEBF73B504460E461546FFF790FF2046FFF765FF002341
:4041C0002A460093314601332046FFF769FF05462046FFF753FF002D14BF4FF0FF3000207CBD10B504690919BDE81040FFF7DEBF2DE9F0411F46A1F57C73012B04460E46B6
:404200009046056801D9FFF767FF2D692079314642463B46A847BDE8F08130B5054685B0FFF75AFF2B6828791C694FF47B71002201ABA04708B1002001E0BDF80C0005B0D0
:4042400030BD70B506460D46FFF746FF336830791C694FF47B7100222B46A047002814BF4FF0FF30002070BD11F0030F70B584460B4632D110F0030F2FD195100446AC46E1
:4042800011E053F8106CACF1040C44F8106C53F80C6C44F80C6C53F8086C44F8086C53F8046C44F8046C10341033BCF1030FE8D8AB081B0100EB030CCB1815F003050AD0FB
:4042C000284600215C584CF8014004310138F9D1AD00AC445B1902F0030213F0010F19462FD11CF0010F60462BD15410254610E031F8086C043D20F8086C31F8066C20F8AA
:40430000066C31F8046C20F8046C31F8026C20F8026C08300831032DEAD8A108C9005B1814F003048C440AD0204600215D5A2CF8015002310138F9D16400A4441B1902F075
:404340000102614610E013F8040C043A01F8040C13F8030C01F8030C13F8020C01F8020C13F8010C01F8010C18460433032A8C4601F10401E7DC32B10023C15C0CF8031059
:4043800001339342F9D170BD094B10B5D8689A68002308E0114652F8084B1CB901230B60486810BD01338342F4D3002010BD00BFBCD2FF1F084B30B50022DC689B6808E021
:4043C0005D6819460833854202D100230B6030BD0132A242F4D330BDBCD2FF1F01230373704700230373704710B1002282720260704718B1027B0AB1013A027370470000D9
:40440000014B83F87C007047BCD2FF1F38B5FFF70DFE20B3124C4200E2600001FFF7FAFD238AA060E0685843FFF7F4FDA568E168228A002304E005EBC30460600133801882
:404440008B42F8D31020FFF7E5FD054C60612820FFF7E0FDA37CA06143F00203A37438BDBCD2FF1F38B510220D4600210446FFF7E7FCFFF789FF08B9013038BDA0604FF005
:40448000FF33002065602360A07338BD38B5837A044643B10568FFF79FFB2846FFF7A9FF2046FFF7A1FF002038BD08B50368827A03B19B6822B11BB1FFF7E8FF002008BDDC
:4044C000012008BD08B901307047FFF7EEBF000038B5104B9C69217B59B921606160A16004F110001422FFF7ABFC237B013323730DE0656A45B92820FFF776FD606218B116
:4045000029462822FFF79CFC646A002CE3D1204638BD00BFBCD2FF1F38B50E4B5C69A17AE56839B920461022FFF78AFC0123A372E5600CE045B91020FFF756FDE06018B15D
:4045400029461022FFF77CFCE468002CE7D1204638BD00BFBCD2FF1F2DE9F74F06460020884691469B469DF830A09DF83470FFF7AFFF054608B9044610E0FFF7CDFF044654
:4045800060B180F80B900560AE604046214652463B46CDF800B0FFF751F930B12046FFF723FF2846FFF725FF00242046BDE8FE8F2DE9FF410C461F4604A9002341F8043DAF
:4045C00015469DF8286000F0B3F88046B8B1039B0BB11B789BB1404600F0ECF900280EDD14F0150F01D0032809D1039939B1404622462B4600970196FFF7AEFF00E000201E
:4046000004B0BDE8F08100002DE9F3410646884600240E4D404655F83410E700FFF746FC10B9002C04DA0DE001340F2CF1D109E07D19A87929790090EA796B793046FFF720
:40464000B7FF00E00020BDE8FC8100BFF86C0000FFF7DABF10B5437B04460BB1012010BD40682168A268A37BFFF7BBFD10B10120607310BD207310BD10B5437B044663B967
:40468000037B53B140682168A268A37BFFF7A9FD08B1012363730023237310BD036870B5994204460D46164607D0037B0BB1FFF7E3FF00232560A673E37370BD10B50446AA
:4046C000FFF7ECFF0123E373237310BDFFF7D4BF10B50446FFF7D0FFA068BDE81040FFF769BE01230373FFF7C7BF10B50446407B08B1012010BDE37B5BB960682168A26831
:40470000A37BFFF708FD10B10120607310BD0122E27310BD08B5436813B94FF0FF3008BD984708BD014B986F704700BFBCD2FF1F2DE9F0470F463A210646FFF702FC044692
:4047400010B93446174D27E00378C6EB000A5BB114F8013F43B162783A2A05D1A3F130085FFA88F8023401E04FF000080D4D2B6828791B6898478146FFF7A5FB504508D137
:40478000484631465246FFF7A6FB10B92B79434502D0AD6D002DEAD107B13C602846BDE8F08700BFD8D2FF1FF8B5174C064694F85710A56D69B95C2201272046FFF740FBD7
:4047C00084F85770A5653046FFF7A4FF00280EDA18E045B95C20FFF707FCA06518B129465C22FFF72DFBA46D002CE0D10AE0074B26609A6F01329A670323207184F8577022
:4048000084F856302046F8BDD8D2FF1FBCD2FF1FFFF7CABFA1F57C7CBCF1030F2DE9F04106460C4615461F460BD9FFF742FC002803DA4FF0FF30BDE8F081304621462A4688
:404840003B46BDE8F041FFF7D3BC08B901387047FFF7E0BF28B1002240F2F2311346FFF7F4BF704710B590F8553004469BB1114B5B690EE09A7A5AB11A684AB19168A1421F
:4048800006D1002199721960117B09B101391173DB68002BEED100221346204640F2F131FFF7B8FF002384F8553063712361636110BD00BFBCD2FF1FFFF7D4BF70B50446F9
:4048C000FFF7F7FB20B92046BDE87040FFF7F4BF94F8553073B1104B5D6906E0AB7A1BB12B689B68A34213D0ED68002DF6D12046FFF7D6F80022134620464FF47C71FFF78E
:4049000089FF002384F8553063712361636170BD2846FFF7BBFDE7E7BCD2FF1F10B50021FFF706FF18B1BDE81040FFF7C7BF10BD70B590F855300546B3B10C4B5C6909E01E
:40494000A37A33B123689B68AB4202D12046FFF743F9E468002CF3D12846FFF7A1F82846BDE87040FFF776BF70BD00BFBCD2FF1F08B528B10021FFF7DBFE08B1FFF7D8FF85
:404980004FF0FF3008BD38B504460D46FFF791FB08B9013838BD2046FFF79EFB204600F095FB2046FEF7B4FC08B184F8555094F8550038BD90F8553023B990F8561009B1A2
:4049C000FFF7E1BF1846704730B51346BAB1B0B10268857A0AB1946804B900247DB172B16CB1C27A12F0100204D14FF6FA730381104630BD1A46BDE83040FFF70FB90020A2
:404A000030BDFFF7E1BF00002DE9F04F8BB01C4605460992079100F08BFB00228246214628461346FEF7D6FBDDF81CC0804608B9013867E0354B1FFA8AFB1B684FEA1A4A39
:404A40004FF0100900260090CDF804900296CDF80CB0CDF810A09F68284621466246099BB847002846D02046FFF7B8FC2046FFF72DFEAA8B3146A068FFF7E2F9414605F143
:404A80001800FEF701F80890089920460122FFF715FEA768424638464B461D490096CDF804B0CDF808A0FEF7C5FF099A07F1200018494B460096CDF804B0CDF808A0FEF7C6
:404AC000B9FF2046FFF702FEA0683146AA8BFFF7B7F908E0089B2046F1180122FFF7DEFD2046FFF7B7FD95F8343001369E42F1DB002007E02846214642460123FEF798FB66
:404B00006FF001000BB0BDE8F08F00BF2081FF1FA06D0000AC6D000070B58AB0054604AC0E4620462946FFF79DFC09AB009328462146324608ABFEF71FFEB8B10898FFF728
:404B4000C2F998B1099B2846009321460023089A01930293FEF718F8064638B928460899099A2346FFF750FF002801DA4FF0FF3604A8FFF7ADFD30460AB070BD2DE9F0412E
:404B80008AB0064604AD0F462846314614469846FFF768FC08AB0093304629463A4609ABFEF7EAFD20B92846FFF792FD012429E0089B3046009329460023099A01930293B3
:404BC000FDF7E2FF08B9012419E008F1FF38B8F1070F13D8DFE808F0040712091212120DC37A23700AE00E3000E01630FFF7BFF903E01230FFF7D4F900042060002404A8F7
:404C0000FFF766FD20460AB0BDE8F0812DE9F04F8FB089469DF86010069207930991BDF86420BDF86C309DF8701005460B92BDF868800C930D91FFF73CFA0028C0F2728157
:404C4000002385F85530FFF79FFB0446002800F06781AC4B1B8A4345C0F06281B8F1000F00F05E81079A06994FEAC803DFF8ACB2002A08BFFF22002908BF3F210A930C9FD4
:404C800001230792AC46069102461C465D460C99EB688F422E7A00D13FB9202E03D0DDF82CA0012708E0374604E0202E02D0DDF82CA001E04FF0000A41464FEA4A10049259
:404CC0000593CDF80CC0FFF737F9C7EB090B0999C0EB0B0B9BFBF1F070430A99FFF72CF909994000C0EB0B0B9BFBF1FB06FB0BF00A99FFF721F9049A0890059BDDF80CC009
:404D000024B940F6F4718B4507DD01E09B4504DA013C083DB4F1FF3FB9D114460021104642466546FFF78CF86FF01603204600F8033B08227449FFF7E1F804F10B004146EA
:404D4000FFF72AF9099A04F10E0062733946FFF723F90223237404F111005146FFF71CF9B9F5803F06D204F113001FFA89F1FFF713F904E004F120004946FFF703F96FF0EF
:404D80000703637504F118000699FFF705F904F11A000799FFF700F904F11C002969FFF7F1F8202E21D06FF07F0384F82430A93384F8263004F127005449FFF7E3F8089B86
:404DC00004F1160099B2FFF7E7F851490B2204F12B00FFF793F84F4B4F4904F136000C2E18BF19460822FFF789F804F5FF704AF65521FFF7D1F80021284622460B46FFF797
:404E0000F0F900284BDB202E07D10621002328462246FFF7E6F9002841DB002142462046FFF70EF8089902234FEA410B0093284639465A462346FFF7AFF900282FDB6FF0CE
:404E40000703237007330C2E18BFE3706370A3702846022339462246FFF7C3F900281EDB089A0223D11928462246FFF7BAF9002815DB204600214246FEF7E2FFBAF1000FDD
:404E800011D001234FEA4A12009328460BEB0701B2FBF8F22346FFF77FF9002803DA2046FFF788FA3CE02B6933B30D9B23B30021284622460B46FFF717F9E8B90C2E94F83F
:404EC000C23102D0102E06D002E04FF0010909E04FF00B0906E0B9F5803F34BF4FF004094FF006094B4507D0002184F8C291284622460B46FFF75AF92046FFF75BFA0020FA
:404F000010E000BFBCD2FF1F346E000067452301C86D00003D6E0000466E0000B86D00004FF0FF300FB0BDE8F08F00BFF0B58BB007AD044600210C222846FEF781FF204665
:404F400000F0C4F820462946FFF77BF923690BB163690893089911B94FF0FF3020E0BDF81E20BDF81C30BDF82460002000E001300C4D4FEAC00C05F11C0757F83070B942FF
:404F8000F5D80CEB050090F82050408C00950190002003900130049020460296FFF736FE0BB0F0BDB86D000030B504468BB00D4600292FD0FFF77DF8002802DA4FF0FF304F
:404FC0002AE0204600F082F8AA6807AB22B920461946FFF736F902E007CA83E80700236923B16369089A9A4288BF08932978BDF81E2000916988BDF81C300191BDF824100B
:4050000020460291A9880391A97904910899FFF7FDFD01E0FFF78AFF0BB030BD0378E92B01D101207047EB2B01D0002070478078902814BF00200120704708B500F5FF70CF
:40504000FEF7AEFF4AF65523984214BF0020012008BD01EB001000F5E370FEF788BFF0B50D4685B01446064658B352B300210B46FFF73AF8002824DB2046FFF7DEFF00B313
:405080002046FFF7CBFF10B10024274616E02146FFF7DFFF074604F5E570FEF768FF01A904463046FFF7CDF85CB157B1E219FF23120AB2FBF3F2029B9A4202D81DB12C609E
:4050C00001E04FF0FF37384605B0F0BD73B50446FFF7A3F80646FFF757F90C4B05461B8AB3420DD366B1204601A92A46FFF7B7FFB0F1FF3F04D02061019B6361002400E0EE
:40510000FF242846FFF756F960B27CBDBCD2FF1F80B500AF04484FF48051FEF775FF0348FFF776FB80BD00BFC481FF1F986E000080B485B000AF0023FB810023BB810023A5
:405140007B8101233B810123FB800023BB80FB895B089BB21A46BB895B011A447B89DB0213443B603A89FB885B011A44BB885B0213441B043A6813433B603B6818461437FC
:40518000BD465DF8047B70474FF6FF7070470000014B1868704700BFC491FF1F00487047B86E000000F096BD37B501220DF10701054600F0A7FD9DF80740FF2C14BF0A24DD
:4051C0000724284601220DF1070100F09BFD9DF80700FF2803D1013CE4B2002CF1D13EBD37B50469857828460DF10701012200F089FD9DF807300BB1002003E0013CF2D124
:405200004FF0FF303EBD37B54FF0FF3305460C468DF8073006E028460DF10701012200F08BFD013C002CF6DC3EBD000038B5094C2368032B02DD4FF0FF3509E0DDB201332B
:4052400023601420FEF7E6FE04EB850460608570284638BDC491FF1F08B5034B4FF400711B68984708BD00BF2481FF1F4FEAD20CACEBD103CCF10F0C10B501336044002418
:4052800010F801CB013B4CEA0424F9D101F00703511A02228A40DC40013A04EA020010BD7FB5130E85788DF80530130C01F03F018DF80630130A41F040018DF807300023C9
:4052C0008DF808208DF804101A4601A911F802C000215B00DBB283EA0C0E1EF0800F18BF83F009030131082904D04FEA4C0C5FFA8CFCEEE70132052AE7D15B0043F00103E6
:405300008DF809308678C4680122304603A900F0F9FC9DF80C30FF2B04D00CB9FF2009E0013CF1E7284601A9062200F005FD2846FFF73AFF04B070BDF7B5847806460F46B1
:4053400020460121FFF75FFF204600F00DFC304609210022FFF7A4FF8DF8070028BBF6680546012220460DF1060100F0CBFC9DF80630FE2B06D0FC2B04D00135ADB2B542E9
:40538000EFD112E00DF1070520463946102200F0B9FC29462046012200F0B4FC29462046012200F0AFFC002500E0FF25204600F0EFFB20460121FFF726FF2846FEBD000015
:4053C0002DE9F04F9B46494B89B003EB800305925C684A02029103924FF00309029AA578E678039B2846022E08BF13461E4600F0CFFB01212846FFF706FFBBF1010F0CBF7C
:405400004FF0110A4FF0120A284600F0ADFB204651463246FFF744FF002851D1059F5E46A378E268B44604924FF000081E460FE0012230460DF11F01CDF804C000F062FC54
:405440009DF81F20DDF804C0FE2A05D008F10108049B9845ECD333E0284639464FF40072664600F04FFC0222284607A900F04AFC9DF81C30384601939DF81D80FFF7ECFE6C
:405480004FF6FF729042019B0CD048EA0328404508D0BAF1120F13D120460C210022FFF7FFFE0DE0013E02D007F50077B8E7BAF1120F07D120460C213246FFF7F1FE01E055
:4054C0004FF0FF36284600F063FB28460121FFF79AFE3EB1B9F1000F02D009F1FF397DE74FF0FF36304609B0BDE8F08FC491FF1F2DE9F04F99464C4B87B0029203EB80030D
:405500009DF840205D68009103926B78002B40F085804B0201930327009BAC78EE78019A2046022E08BF1A46164600F031FB01212046FFF768FEB9F1010F0CBF4FF0180A7E
:405540004FF0190A204600F00FFB284651463246FFF7A6FE8DF81700002850D120460121FFF751FE029ECB46B8463046FFF774FE0DF11707BAF1180F0CBFFE23FC230122F7
:405580008DF817308DF81500030A394620468DF8143000F0D1FB204631464FF4007200F0CBFB0222204605A900F0C6FB01222046394600F0A7FB9DF8173003F01F03052B22
:4055C0001CD12846FFF70CFEC0B9039A0AB906F50076BBF1010BC8D1BAF1190F474611D106A96FF00203204601F8013D012200F0A3FB2846FFF7F4FD20B100E047464FF040
:40560000FF3600E00026204600F0C2FA20460121FFF7F9FD26B10FB1013F7DE74FF0FF36304607B0BDE8F08FC491FF1F2DE9F04F877887B0044638460D4600F095FA2046AB
:405640003A210022FFF72CFE064638B1384600F09FFA38460121FFF7D6FD58E00DF1140804224146384600F04DFB4046FEF773FC8046384600F08CFA01213846FFF7C3FD39
:40568000B8F1000F28F07F02B8BF4FEA987BD2B240F272634FEA1828B8BF0BF0010B1FFA88F8002A14BF1A460022012111EA080F05D10136F6B24900102E89B2F6D140F298
:4056C0007260824233460DD06422724302F5FA6208E011EA080F07D049000133013689B2DBB2F6B20F2EF4D964214B434FF6FE7103F5FA6302EA01014FF6FC72384603EA09
:40570000020200F0B3FA10F0FF0F40F099804FF0FF3092E028467E217F22FFF7A7FD8246EB78DFF82C8103F0030203F0780308EBD30358F822101B7C3846594389B200F00D
:4057400051FA0646002877D06B7803F00702DB1003F00F0308EB82024344126A93F810800292B8F1000F67D0A978284603911C221A21FFF77BFD0190BAF1000F1FD1502186
:4057800053222846FFF772FD4FF0010909FA00F92F2131222846FFF769FD1FFA89F982463E21284649224FEA5929FFF75FFD0AF1020A09FA0AF9013000FB09F910E0BAF171
:4057C000010F01D0012038E0284630214522FFF74DFD4FEA8029BBF1000F01D00223E37008FB06F2029B0399B2FBF3F2642303FB01225A437343D208DB089A4294BFE26054
:40580000E360FA235E43019BF6089A400C21B24294BF2261266128460D22FFF727FD0546384600F0C9F94FF4007128436070A180C4F80890002000E0FF2007B0BDE8F08FE5
:40584000E378A778012B3FF465AF4FF0000A67E7506E0000F0B5857887B004464FF4C871284600F0BFF9B0F5C87F00F2CC804CF25033E3600026284600F08AF90A21284663
:40588000FFF7C1FC624B93E8030001902846ADF8081000F069F9062201A9284600F04CFA2846FFF781FC0746284600F071F901212846FFF7A8FC17F0010F03D10136052E11
:4058C000D9D1A0E0284600F04FF9082120464FF4D572FFF7E5FC10F0040F52D0284600F057F9A5784FF4FA66284600F03DF9002237212046FFF7D4FC28460121FFF783FC06
:40590000292100222046FFF7CBFC0746284600F03FF928460121FFF776FC17B90123E3701EE017F0040F01D1013EDDD14FF4FA66284600F019F9012100222046FFF7B0FC80
:405940000746284600F024F928460121FFF75BFC0FB9E77004E0012F55D1013EE8D152E001AD20462946FFF7E7FC00284BD120462946FFF75BFEC0B2002844D101232370D5
:4059800043E00422A07805A900F0BCF9284600F0FFF89DF81730AA2B35D19DF8163003F00F03012B2FD1A5784FF4FA66284600F0DBF8002237212046FFF772FC2846012156
:4059C000FFF721FC29214FF080422046FFF768FC0746284600F0DCF828460121FFF713FC0FB1013EE2D101AE20463146FFF7A4FC48B90125E57020463146FFF717FEC0B2CB
:405A000008B9257001E04FF0FF3007B0F0BD00BF906E000010B5084B03EB80035C6823783BB9FFF7BFFB20B12046BDE81040FFF711BF4FF0FF3010BDC491FF1F38B51D4624
:405A4000154BA1F57B7103EB80035C68072918D8DFE801F00A17171704041719204600211422FEF7EDF90CE0237833B92046FFF7F1FE10B14FF0FF3038BDA3882B81A36854
:405A80006B60002038BD2046FEF7B0FA024B00201A68013A1A6038BDC491FF1F80B582B000AF0346FB71FB79002B12D1134B1B78002B0DD1114B01221A7000F04DFA3B2013
:405AC000012100F063FA00F02DFA00F097F912E011E00A4B1B78002B0CD1084B01221A7000F03AFA3B20012100F050FA00F01AFA00F084F900BF0837BD4680BDD891FF1FBC
:405B000080B584B000AF03460A46FB711346BB71FB79002B11D1BB79184600F0ABF900BF00F088F9034603F00103DBB2002BF7D000F0BAF90346FB7311E0BB79184600F060
:405B400099F900BF00F076F9034603F00103DBB2002BF7D000F0A8F90346FB7300BFFB7B18461037BD4680BD80B582B000AF0346FB71FB79002B03D1002000F0D3FA03E056
:405B8000002000F0CFFA00BF0837BD4680BD00BF80B582B000AF0346FB71FB79002B03D1012000F0BFFA03E0012000F0BBFA00BF0837BD4680BD00BF80B485B000AF034600
:405BC000FB71FB79002B02D10023FB6002E00023FB6000BFFB6818461437BD465DF8047B704700BF80B584B000AF03460A46FB711346BB80BB88B3F5C87F03D24FF4C8739B
:405C0000BB8006E0BB88B3F57A6F02D94FF47A63BB80BB885B00FB81FB8945F6C052B2FBF3F39BB2BB60FB79002B0CD100F094F9BB689BB2013B9BB21846012100F0A6F952
:405C400000F070F90CE000F087F9BB689BB2013B9BB21846012100F099F900F063F900BFBB8818461037BD4680BD00BF80B485B000AF0346FB710B46BB8013467B80FB7961
:405C80000033032B0FD8BB8840F6E442934207D87B8840F6E342934202D90123FB6012E00023FB600FE0BB8840F6E442934207D87B8840F6E342934202D90123FB6001E09C
:405CC0000023FB6000BFFB6818461437BD465DF8047B704780B584B000AF0346FB71FB791846FFF7DBFEFB790033032B02D80223FB6002E00223FB6000BFFB681846103707
:405D0000BD4680BD90B585B000AF0346B9607A60FB73BC68631CBB60FB7B1846FF21FFF7EFFE034623707B68013B7B607B68002BEFD11437BD4690BD80B584B000AF03461B
:405D4000B9607A60FB73BB685A1CBA601B78FA7B10461946FFF7D4FE7B68013B7B607B68002BF0D11037BD4680BD00BF80B500AF074B0F221A7000F0A7F800F05BF800F0C8
:405D800069F8044B00221A70034B00221A7080BD8A6400408F6400408E64004080B582B000AFFCF77DF80346FB71114A104B1B78DBB243F02003DBB213700E4A0D4B1B780B
:405DC000DBB243F01003DBB213700B4A0A4B1B78DBB243F01003DBB21370FB791846FCF763F800F01BF800F01FF80837BD4680BD9A6400409F6400409E64004080B500AF50
:405E0000054B1B78002B04D1FFF7B0FF024B01221A70FFF7C3FF80BDD991FF1F80B400AFBD465DF8047B704780B400AFBD465DF8047B704780B483B000AF054B1B78FB711C
:405E4000FB7918460C37BD465DF8047B704700BF6F64004080B483B000AF054B1B78FB71FB7918460C37BD465DF8047B704700BF6E64004080B483B000AF0346FB7100BF4A
:405E8000074B1B78DBB203F00403002BF8D0054AFB7913700C37BD465DF8047B704700BF6F6400404D64004080B483B000AF054B1B78FB71FB7918460C37BD465DF8047B58
:405EC000704700BF5D64004080B582B000AF01E0114B1B78114B1B78DBB203F02003002BF6D1FBF7DDFF0346FB710D4A0C4B1B78DBB243F00103DBB21370094A084B1B78F0
:405F0000DBB223F00103DBB21370FB791846FBF7CBFF0837BD4680BD5D6400406E6400409D64004080B400AF094A094B1B78DBB243F00103DBB21370064A064B1B78DBB29A
:405F400043F00103DBB21370BD465DF8047B7047A2430040B243004080B400AF094A094B1B78DBB223F00103DBB21370064A064B1B78DBB223F00103DBB21370BD465DF8E1
:405F8000047B7047A2430040B243004080B584B000AF03460A46FB8013467B7100F0B2F80346FB7300F0A2F80346BB81FA88BB899A4200F08780454B1B78DBB203F0010340
:405FC000FB72FB7B002B20D1BB89002B02D0FB88002B1AD1BB89002B0BD13D4AFB8813803C4A3C4B1B78DBB223F04003DBB2137068E0384A374B1B78DBB243F04003DBB2DE
:406000001370334AFB8813805CE0FB7A002B33D0314B00221A70314B01221A70304B00221A70304A2F4B1B78DBB203F07F03DBB21370284B1B78DBB203F00803002B02D0CC
:40604000FB88002B18D1284ABB891380224B07221A7000BF204B1B78DBB203F00103002BF8D11A4A194B1B78DBB223F00103DBB21370194B00221A70144B1B78DBB203F05A
:406080000103002B13D0184AFB881380124A7B79002B01D0032300E00123137000BF0E4B1B78DBB203F00103002BF8D10AE0084AFB8813800549054B1B78DAB2FB7A134360
:4060C000DBB20B701037BD4680BD00BFA24300408040004082400040014000401040004014400040084000400240004080B400AF034B1B889BB21846BD465DF8047B70476F
:406100008040004080B400AF054B1B78DBB203F00703DBB21846BD465DF8047B704700BF8240004080B485B000AF0346FB71094B1B78DBB203F07F03FB730649FB79DB0112
:40614000DAB2FB7B1343DBB20B701437BD465DF8047B704760510040014B1868704700BF8881FF1F0E4B70B51E460E4C0025E41AA410A54204D056F8253098470135F8E727
:4061800000F0B8FE084B094C1E46E41AA4100025A54204D056F8253098470135F8E770BD006F0000006F0000006F0000086F000010B5431E0A44914204D011F8014B03F8A8
:4061C000014FF8E710BD03460244934202D003F8011BFAE7704700000EB400B54FF402719CB0ADF814106FF00041049107914FF6FF711DABADF81610084953F8042B02900A
:406200000690086802A9019300F064F8029B00221A701CB05DF804EB03B070478881FF1F2DE9F0478E688246B3420C469046994640D38A8912F4906F3AD025680969022383
:406240006F1A656905EB450595FBF3F57B1C4B449D4238BF1D4653050FD5294600F030FB064698B121693A46FFF7A2FFA38923F4906343F08003A38113E02A4600F076FBE6
:40628000064670B95046216900F0D6FA0C23CAF80030A3894FF0FF3043F04003A381BDE8F08726613E4426604E466561ED1BA560B14500D24E4632462068414600F0A0FAB5
:4062C000A36800209B1BA36023681E442660BDE8F08700002DE9F0439DB003938B8906461C060D4690460CD50B6953B9402100F0E7FA2860286110B90C233360CCE0402316
:406300006B610023099320238DF8293030238DF82A3043461C4613F8012B1AB9B4EB08090FD002E0252AF5D1F8E73046294642464B46FFF775FF013000F0A980099B4B4440
:4063400009932378002B00F0A28000234FF0FF3204930793059206938DF853301A9304F101084446DFF8489121784846052200F039FA08F10108049B30B1C9EB00000122FE
:40638000824013430493ECE7D80644BF20228DF85320190744BF2B228DF8532022782A2A02D0079923460EE0039A0134111D12680391002ABBBF524243F002030792079271
:4063C000B8BF04930AE01C4622780133303A092A03D80A2000FB0121F5E7079123782E2B1AD163782A2B0AD1039B02341A1D1B680392002BB8BF4FF0FF3305930CE0611C21
:4064000000220C4623780131303B092B03D80A2000FB0232F5E70592DFF8988021784046032200F0DFF938B1049AC8EB00004023834013430493013421781A48062204F140
:4064400001088DF8281000F0CDF988B1164B33B9039B073323F007030833039313E003AB0093304604A92A46104BAFF3008007E003AB0093304604A92A460C4B00F092F884
:40648000421C074603D0099B3B44099341E7AB895B0601D4099801E04FF0FF301DB0BDE8F08300BFC86E00000000000021620000BE6E0000C46E00002DE9F84391461F46D5
:4064C0008A680B6906469342B8BF1346C9F8003091F843200C46DDF8208012B10133C9F800302368990642BFD9F800300233C9F80030256815F006051CD094F84330226855
:40650000003318BF012392061FD5E118302081F843005A1C94F845102244023382F8431013E03046394604F119020123C047013007D00135E368D9F800209B1A9D42F0DBE1
:40654000DBE74FF0FF30BDE8F8833046394604F14302C0470130F4D02268D9F80050E36802F00602042A08BF5D1B2269A3680CBF25EAE57500259342C4BF9B1AED184FF003
:406580000009A9450ADA3046394604F11A020123C0470130D5D009F10109F2E70020BDE8F88300002DE9FF410C461746227E98466E2A06460A9B01F1430100F0B08012D890
:4065C000632A23D00AD8002A00F0BD80582A40F0CC8084F84520DFF804E257E0642A1ED0692A1CD0C1E0732A00F0B18009D86F2A2ED0702A40F0B980226842F020022260DA
:406600003FE0752A24D0782A3BD0AEE01A6804F14205111D1960136884F84230A9E020681A6810F0800F02D0101D186008E010F0400F02F10400186002D0B2F9003000E0D3
:406640001368002B3EDA2D225B4284F8432039E020681A6810F0800F02D0101D186007E010F0400F02F10400186001D0138800E01368227EDFF864E16F2A0CBF08220A2286
:406680001CE07822DFF858E184F845202268186812F0800F00F104051D6003D1550601D5038800E00368D00744BF42F0200222601BB9226822F0200222601022002084F8D4
:4066C000430002E0DFF814E10A226568002DA8BF2068A560A4BF20F00400206003B965B10D46B3FBF2F002FB10331EF8033005F8013D03460028F4D100E00D46082A0BD1A8
:406700002368DA0708D5236962689A42DEBF302305F8013C05F1FF35491B21612EE025681A6815F0800F606903D0151D1D60136808E015F0400F02F104051D60136801D02C
:40674000188000E01860002323610D4616E01A68111D1960156800212846626800F042F808B1401B6060636804E004F1420584F8422001232361002384F84330CDF8008074
:406780003046214603AA3B46FFF796FE013002D14FF0FF301FE0304639462A462369C0470130F5D023689B0705D4E068039B9842B8BF18460FE00025E368039A9B1A9D42BA
:4067C000F3DA3046394604F119020123C0470130DED00135F0E704B0BDE8F081CF6E0000E06E000010B5C9B202449042034605D01C7801308C42F8D1184610BD002010BD71
:40680000814210B501EB020301D3421E0BE09842FBD28118D21AD34204D013F8014D01F8014DF8E710BD994204D011F8014B02F8014FF8E710BD000030B500293CD051F802
:40684000042C0B1F1D49002AB8BF9B180A680C4612B95A600B6030BD93420DD219685818904201BF5A5852181A60426823605A6030BD994203D80A4651680029F9D1146894
:4068800015199D420AD11B682344D0188842136012D10868034413604B680CE002D90C23036030BD1C681819884201BF08684968001918605960536030BD00BFE091FF1F43
:4068C00070B5CC1C24F0030408340C2C38BF0C24002C064603DA0C233360002070BD8C42F9D3204A136810461946A1B10A68121B0ED40B2A03D90A608B188C501FE08B42A4
:406900000BBF5A684A6802605A6018BF0B4616E00B464968E9E7144D2B681BB9304600F04BF828603046214600F046F8421C0346D1D0C51C25F0030585420AD11C6003F1B1
:406940000B001A1D20F00700821A0AD05142995070BD3046E91A00F02FF80130BBD02B46ECE770BDE091FF1FDC91FF1FF8B5074615460E4621B91146BDE8F840FFF7A0BFBC
:406980001AB9FFF759FF2846F8BD00F025F8A8420ED238462946FFF793FF044650B131462A46FFF705FC38463146FFF745FF01E03046F8BD2046F8BD38B5064C002305461B
:4069C00008462360F9F7A2FF431C02D1236803B12B6038BD40D3FF1F51F8040C0028BEBF091851F8043CC01804387047000000005C7365745F74696D652E7478740000005C
:406A00005C666F726D61742E747874007200000000000000746573745F666F6C646572005C746573745F666F6C6465725C746573745F66696C652E747874000077000000BF
:406A400025582C25752C25582C25582C25582C25582C25582C25582C25582C25580A00005C424D535C536F432E74787400000000547970652C54696D652C56616C75652CA2
:406A800049440A0025752C25582C25582C25750A00000000C84900401900005100401000405100402000C0510040100000000140800C000D0140000300140140000800406B
:406AC0000140000A004C01400002005001402000800C0140380700488000000000000000080088000000000001000000080088000000000002000000080088000000000084
:406B0000030000000800880000000000040000000800880000000000050000000800880000000000060000000800880000000000070000000800880000000000000000006C
:406B4000A8008000FFFFFFFF0000000001000000A8008000FFFFFFFF0000000002000000A8008000FFFFFFFF0000000003000000A8008000FFFFFFFF00000000040000007B
:406B8000A8008000FFFFFFFF0000000005000000A8008000FFFFFFFF0000000006000000A8008000FFFFFFFF0000000007000000A8008000FFFFFFFF00000000080000002B
:406BC000A8008000FFFFFFFF0000000009000000A8008000FFFFFFFF000000000A000000A8008000FFFFFFFF000000000B000000A8008000FFFFFFFF000000000C000000DB
:406C0000A8008000FFFFFFFF000000000D000000A8008000FFFFFFFF000000000E000000A8008000FFFFFFFF000000000F000000A8008000FFFFFFFF00000000FF3F00005C
:406C40001000000010000000FFFF01002000000020000000FFFF07002000000040000000FFFF1F002000000080000000FFFF3F004000000080000000FFFFFF034000000056
:406C800000200000FF0F000002100000FF7F000002200000FFFF000004200000FFFF030008200000FFFF070010200000FFBF0F00103F0000FF7F1F00203F0000FFFF3E0020
:406CC000403F0000FFFF7D00803F0000FFFF7D00FF3F000099250000852300005F27000061220000392C0000792B00001F2B0000000000002E2E0000706D0000080001001E
:406D0000726D00000A000100756D000014010001776D0000160100017A6D0000150001017C6D0000170001017F6D000018000100826D00001A000100866D00001A00010058
:406D40008A6D00001C0100018D6D00001E010001916D00001E010001956D00001D000101986D00001F0001019C6D00001F0001017200726200770077620061006162007229
:406D80002B00722B620072622B00772B00772B620077622B00612B00612B620061622B002E20202020202020202020002E2E202020202020202020000C00000000000000A2
:406DC00010000000F50F00004E4F204E414D45202020200000010000010020000002000001004000000800000100800000100000010000010040000002000001008000005E
:406E000002000001000004000400000200000800080000020000100010000002A0FE1F002000000240FD3F004000000200F5FF00800000024D5357494E342E310046415402
:406E4000313620202000464154313220202000000A00000064000000E803000010270000000A0C0D0F14191E23282D32373C41508096980040420F00A08601001027000055
:406E8000E8030000640000000A0000000100000040000000009500009D5100002D520000C1530000F15400003D5A0000155A0000A5510000915100006D6D63004300232D2F
:406EC000302B2000686C4C006566674546470030313233343536373839414243444546003031323334353637383961626364656600000000F8B500BFF8BC08BC9E46704770
:406F00004D000000F9090000F8B500BFF8BC08BC9E46704729000000286F00000881FF1F88000000B85100000000000048D3FF1F00366E01C05D0000180000000000E02E6A
:406F4000E46C0000895100000000000000000000000000000000000000000000000000000000000000000000BC6E00000000000000000000000000000000000000000000BD
:406F8000000000000000000000000000000000000000000000000000000000000000000000000000000000002881FF1F00000000000000000000000000000000000000000A
:406FC0000000000000000000000000000000000000000000000000000000000000000000000000000000000000000000000000000000000000000000000000000000000091
:407000000000000000000000000000000000000000000000000000000000000000000000000000000000000000000000000000000000000000000000000000000000000050
:407040000000000000000000000000000000000000000000000000000000000000000000000000000000000000000000000000000000000000000000000000000000000010
:4070800000000000000000000000000000000000000000000000000000000000000000000000000000000000000000000000000000000000000000000000000000000000D0
:020000040003F7
:0200000480007A
:40000000014500400652004004640040016500402D0201400D0301401E0401401305014037060140160701404608014028090140440A01402D0B0140170C0140390D014007
:40004000360E01402B0F01402C14014010150140321601401317014004190140031B014007400140094101400642014006430140044401400D450140084601400947014086
:400080000D4801400A4901400A4C01400A4D014007500140035101407E02104011401460190131407C40840D870D8A0F8B0D870D02012A013601401249FF4AFF4BFF4F0112
:4000C0005018528058045A045B045C015D115F016040624064406540668068806A806C806E80C012C9FFCAFFCBFFCD83CE03CF01D018DA04DD01DF01E040E240E440E54038
:40010000E680E880EA80EC80EE80078016041F804120434045204604478077C0C010C440D03CE60207011F0137013F40401345EC4702481349FF4AFF4BFF4D834E034F01C1
